:100000000C9463000C948B000C948B000C948B006C
:100010000C948B000C948B000C948B000C948B0034
:100020000C948B000C948B000C948B000C94A30309
:100030000C948B000C948B000C948B000C948B0014
:100040000C946A060C948B000C94E4070C94320810
:100050000C948B000C948B000C948B000C948B00F4
:100060000C948B000C948B000000000024002700EF
:100070002A0000000000250028002B0000000000DE
:1000800023002600290004040404040404040202DA
:100090000202020203030303030301020408102007
:1000A0004080010204081020010204081020000012
:1000B0000007000201000003040600000000000029
:1000C00000008D009E0911241FBECFEFD8E0DEBFD7
:1000D000CDBF15E0A0E0B1E0EEE4F7E102C005908D
:1000E0000D92A033B107D9F716E0A0E3B5E001C047
:1000F0001D92A333B107E1F710E0C6ECD0E004C0D5
:100100002297FE010E94A10BC23CD107C9F70E94B1
:10011000F4090C94A50B0C940000CF92EF920F936E
:1001200082E395E068E049E024E005E056E0E52E52
:1001300037E0C32E0E9431060F91EF90CF900895C3
:10014000609130057091310542E050E00BC0808134
:100150008D932150304031978FEF2F3F3807B9F7FB
:10016000485F5F4FCA0102974617570748F4FA01E4
:10017000E15BFD4FDC01A85CBC4F27E030E0E7CF3E
:1001800082E395E060E040E00E944405E8E3F3E0AC
:10019000A1E5B5E08081992787FD9095880F991F8B
:1001A0002181332727FD3095820F931F880F991FD8
:1001B0002281332727FD3095820F931F880F991FC7
:1001C0002381332727FD3095820F931F880F991FB6
:1001D0002481332727FD3095820F931F880F991FA5
:1001E0002581332727FD3095820F931F880F991F94
:1001F0002681332727FD3095820F931F880F991F83
:100200002781332727FD3095820F931F8C931196FA
:100210001C9211973896119684E0E832F80709F09D
:10022000B9CF0895CF92DF92EF92FF920F931F9371
:10023000CF93DF9382E395E060E040E00E944405C5
:10024000CDECD1E000E010E0F880E980DA80CB80EE
:100250000034110531F482E395E060E041E00E9452
:1002600044056F2D772767FD7095660F771F8E2DDC
:10027000992787FD9095680F791F660F771F8D2D41
:10028000992787FD9095680F791F660F771F8C2D32
:10029000992787FD9095680F791F82E395E040E1EB
:1002A00050E00E94E40A0C5F1F4F249608371105A6
:1002B00059F6DF91CF911F910F91FF90EF90DF9052
:1002C000CF9008950F931F9302E315E0C8010E9499
:1002D0007305C80160E040E00E944405C80160E089
:1002E00071E00E94480BC80160E041E00E944405B3
:1002F000C80160E171E00E94480B68EE73E080E0A5
:1003000090E00E94B206C8010E947305C80160E037
:1003100040E00E944405C80161E271E00E94480B80
:10032000C80160E041E00E944405C80163E371E058
:100330000E94480B6091460270914702C8014AE052
:1003400050E00E94E40A68EE73E080E090E00E94D2
:10035000B206C8010E947305C80160E040E00E9437
:1003600044050E941201A1E5B5E0FD0101900020C5
:10037000E9F73197EA1BFB0BCD016E2F0E94220497
:100380000E9490031F910F91089581E196E06BE325
:1003900071E00E94480B81E196E068E770E04AE076
:1003A00050E00E94350B8091CD01882331F41092EA
:1003B000480281E08093490204C0109248021092E2
:1003C0004902ADECB1E022E030E051E04C911196F1
:1003D0008C9111974817A1F4442359F4F901E85B73
:1003E000FD4F1082C9010196FC01E85BFD4F50836F
:1003F00020C0413009F5F901E85BFD4F408306C09C
:10040000442359F4F901E85BFD4F1082C9010196BC
:10041000FC01E85BFD4F10820CC0413069F4F9012A
:10042000E85BFD4F4083C9010196FC01E85BFD4F8D
:1004300040839C012F5F3F4F119682E0A534B8079F
:1004400029F63093310520933005089580914602B6
:1004500090914702C29731F40E94620110924702C4
:100460001092460280914602909147020196909325
:1004700047028093460282E395E06FE041E00E94EC
:10048000440560914602605C82E395E00E942D0A7B
:10049000089580914C05882319F0813049F406C0F5
:1004A00081E080934C050E942602089510924C052D
:1004B0000895EF92FF920F931F932091840530913E
:1004C000850540918605509187058091470590915B
:1004D0004805A0914905B0914A0579018A01E81AB9
:1004E000F90A0A0B1B0BD801C70185369105A10536
:1004F000B10570F1E0924D05F0924E0500934F0565
:1005000010935005209347053093480540934905C3
:1005100050934A0580914B05823081F0833028F456
:10052000882341F08130A1F407C0833049F0843042
:1005300079F40AC081E005C082E003C083E001C015
:1005400084E080934B0504C010924B050E94490241
:100550001F910F91FF90EF900895EF92FF920F93EC
:100560001F9301E116E0C80140E855E260E070E049
:100570000E946D08B2E3EB2EB5E0FB2EC70160E1EF
:1005800042E020E00E947B05C7010E94730580E2E3
:1005900093E00E944104C80167E571E00E944B0BA3
:1005A000C8016DE971E00E94480BC80169EB71E078
:1005B0000E94480BC8016DEB71E00E94480BC80116
:1005C00061EC71E00E944B0B0E94C5010E94A000EB
:1005D00010924702109246020E9462011F910F91F1
:1005E000FF90EF9008952F923F924F925F926F92FB
:1005F0007F929F92AF92BF92CF92DF92EF92FF9243
:100600000F931F93DF93CF93CDB7DEB762970FB6EB
:10061000F894DEBF0FBECDBF1B012A01DE0111968B
:10062000E2E0F5E04EE001900D924150E1F70097D5
:1006300009F455C05C01CC24DD2493E0AA0CBB1C5A
:10064000CC1CDD1C9A95D1F783E0682E712C6C0EC2
:100650007D1E99249394C101A0E0B0E08F87988B10
:10066000A98BBA8BD3012D913C9140E050E060E022
:1006700074E284EF90E00E947D0BCA01B901A601EB
:1006800095010E947D0B79018A01B2E0EB16F1041D
:100690000105110548F08F859889A989BA89E8165E
:1006A000F9060A071B0748F09394A2E0B0E06A0E2F
:1006B0007B1EB7E09B16B1F604C0E6E09E1679F00B
:1006C00006C0F2E0EF16F1040105110540F0C1018A
:1006D000A0E0B0E08E159F05A007B10728F4D20175
:1006E0001D921C92992403C0F201F182E082892DAF
:1006F00062960FB6F894DEBF0FBECDBFCF91DF91EB
:100700001F910F91FF90EF90DF90CF90BF90AF902F
:100710009F907F906F905F904F903F902F900895A3
:10072000809178058823E1F7089580910105609113
:100730007F050E948F078091300460E00E948F0740
:100740001092780508951F920F920FB60F92112400
:100750002F933F934F935F936F937F938F939F93C9
:10076000AF93BF93EF93FF93809178058823D1F1E6
:10077000809179058F5F80937905815099F5E0919B
:100780007A0580917B05E81760F00E9495038091BF
:100790007C0590917D05019690937D0580937C0565
:1007A00021C08091300490917E0521E030E0092E37
:1007B00002C0220F331F0A94E2F7F0E0EF5CFB4F18
:1007C000608162239F5F90937E050E948F078091D6
:1007D0007E05883038F010927E0580917A058F5F13
:1007E00080937A0580917905883010F01092790510
:1007F000FF91EF91BF91AF919F918F917F916F91F9
:100800005F914F913F912F910F900FBE0F901F90CE
:1008100018951F9310927A0510927E051092790513
:1008200060917F0511E06127809101050E948F078B
:1008300060EA70E080E090E00E94B20610937805D4
:100840001F910895482F292F623610F080E00895F7
:10085000809178058823E1F7A9E3B4E0842F922FF3
:100860009C01F90102C081918D938E2F841B861704
:10087000D0F3685F60937B050E94090480917B053B
:100880000895DF93CF9300D0CDB7DEB76FEF7FEF42
:10089000AE014F5F5F4F0E94F302982F882329F12A
:1008A0001092800088E08093810080918100892BE4
:1008B0008093810089819A81909389008093880038
:1008C00080916F00826080936F008091300461E0BE
:1008D0000E9450078091010561E00E9450078091BD
:1008E000010560917F050E948F070F900F90CF91B7
:1008F000DF9108950F931F938C01FC01868160E0C6
:100900000E948F0781E090E00E940B07F80186812A
:1009100061E00E948F0781E090E00E940B07F801E0
:10092000868160E00E948F0784E690E00E940B07BA
:100930001F910F910895CF92DF92EF92FF920F9344
:100940001F93CF93DF93D82EC92E282F392FC9019B
:100950008C01C0E0D0E0E62EFF24F801878161E041
:100960000E945007B7010C2E02C0759567950A9436
:10097000E2F76170F80187810E948F0721960F5F6F
:100980001F4FC830D10549F78D2D9C2D0E947A0448
:10099000DF91CF911F910F91FF90EF90DF90CF905B
:1009A0000895CF92DF92EF92FF920F931F93CF9310
:1009B000DF93D82EC92E282F392FC9018C01C0E012
:1009C000D0E0E62EFF24F801878161E00E94500705
:1009D000B7010C2E02C0759567950A94E2F7617015
:1009E000F80187810E948F0721960F5F1F4FC43047
:1009F000D10549F78D2D9C2D0E947A04DF91CF916E
:100A00001F910F91FF90EF90DF90CF9008951F936B
:100A1000CF93DF93EC01162F8C81642F0E948F07F8
:100A20008D818F3F19F060E00E948F078F8584FFD2
:100A300005C0CE01612F0E949B040EC0612F70E0A3
:100A400084E0759567958A95E1F7CE010E94D104FF
:100A5000CE01612F0E94D104DF91CF911F910895A3
:100A600041E00E94070581E090E0089540E00E9487
:100A700007050895FC016089862F8460808B6C6077
:100A8000CF010E9436050895DF93CF93CDB7DEB72F
:100A900028970FB6F894DEBF0FBECDBF9C01FE01B4
:100AA0003196A8E1B5E088E00D9001928150E1F720
:100AB000F9018389481710F0482F4150E42FF0E0E6
:100AC000EE0FFF1FEC0FFD1F8181680F6068C901E9
:100AD0000E94360528960FB6F894DEBF0FBECDBF34
:100AE000CF91DF91089561E00E94360580ED97E097
:100AF0000E940B070895CF93DF93EC01423018F06A
:100B00008F8588608F874B8B1C8A222329F0413088
:100B100019F48F8584608F8780E593EC0E940B0722
:100B20008C8160E00E948F078E8160E00E948F07B9
:100B30008D818F3F19F060E00E948F076F8564FD03
:100B40001DC0CE0163E00E94D10484E991E10E94BE
:100B50000B07CE0163E00E94D10484E991E10E9479
:100B60000B07CE0163E00E94D10486E990E00E9469
:100B70000B07CE0162E00E94D10416C06062CE0174
:100B80000E94360584E991E10E940B076F8560623F
:100B9000CE010E94360586E990E00E940B076F8522
:100BA0006062CE010E9436056F856062CE010E94B0
:100BB000360584E0888BCE010E943A05CE010E9462
:100BC000730582E0898BCE0166E00E943605DF91D5
:100BD000CF9108956F927F928F92AF92CF92EF92C2
:100BE0000F931F93DF93CF93CDB7DEB73C01162F42
:100BF000842FF301448325830683E782C086A18680
:100C000082869D8593879E8594879F859587988901
:100C1000968761E00E945007F30185818F3F19F0AC
:100C200061E00E945007F301868161E00E94500755
:100C3000112319F0F301178603C080E1F3018787C0
:100C4000C30160E141E020E00E947B05CF91DF918C
:100C50001F910F91EF90CF90AF908F907F906F90FA
:100C600008958F92AF92CF92EF920F931F93CF93ED
:100C7000DF93DC01362F542F722F102FAE2C8C2CCB
:100C800013961C921E92129784E195E011969C9304
:100C90008E9300D000D0EDB7FEB73196CDB7DEB75A
:100CA0001982118212821382CD0161E0432F2FEF4E
:100CB000052FE72EC12E0E94EA050F900F900F908E
:100CC0000F90DF91CF911F910F91EF90CF90AF9048
:100CD0008F9008951F920F920FB60F9211242F93A9
:100CE0003F938F939F93AF93BF938091840590918F
:100CF0008505A0918605B0918705309188050196FC
:100D0000A11DB11D232F2D5F2D3720F02D570196EA
:100D1000A11DB11D209388058093840590938505BE
:100D2000A0938605B09387058091800590918105F9
:100D3000A0918205B09183050196A11DB11D8093FC
:100D4000800590938105A0938205B0938305BF91A0
:100D5000AF919F918F913F912F910F900FBE0F9068
:100D60001F9018959B01AC017FB7F8948091800586
:100D700090918105A0918205B091830566B5A89BED
:100D800005C06F3F19F00196A11DB11D7FBFBA2F9D
:100D9000A92F982F8827860F911DA11DB11D62E0F4
:100DA000880F991FAA1FBB1F6A95D1F7BC012DC0E0
:100DB000FFB7F8948091800590918105A0918205FC
:100DC000B0918305E6B5A89B05C0EF3F19F00196E9
:100DD000A11DB11DFFBFBA2FA92F982F88278E0FF5
:100DE000911DA11DB11DE2E0880F991FAA1FBB1F15
:100DF000EA95D1F7861B970B885E9340C8F2215085
:100E000030404040504068517C4F2115310541052C
:100E1000510571F60895019739F0880F991F880FD1
:100E2000991F02970197F1F70895789484B582602D
:100E300084BD84B5816084BD85B5826085BD85B57E
:100E4000816085BDEEE6F0E0808181608083E1E82D
:100E5000F0E0108280818260808380818160808365
:100E6000E0E8F0E0808181608083E1EBF0E0808168
:100E700084608083E0EBF0E0808181608083EAE73A
:100E8000F0E08081846080838081826080838081C3
:100E9000816080838081806880831092C100089582
:100EA000CF93DF93482F50E0CA0186569F4FFC0135
:100EB00034914A575F4FFA018491882369F190E099
:100EC000880F991FFC01E859FF4FA591B491FC01CF
:100ED000EE58FF4FC591D491662351F42FB7F89483
:100EE0008C91932F909589238C93888189230BC0B3
:100EF000623061F42FB7F8948C91932F90958923E9
:100F00008C938881832B88832FBF06C09FB7F8946A
:100F10008C91832B8C939FBFDF91CF910895482FA5
:100F200050E0CA0182559F4FFC012491CA018656A8
:100F30009F4FFC0194914A575F4FFA01349133233C
:100F400009F440C0222351F1233071F0243028F4F9
:100F50002130A1F0223011F514C02630B1F0273035
:100F6000C1F02430D9F404C0809180008F7703C091
:100F7000809180008F7D8093800010C084B58F7732
:100F800002C084B58F7D84BD09C08091B0008F7789
:100F900003C08091B0008F7D8093B000E32FF0E01C
:100FA000EE0FFF1FEE58FF4FA591B4912FB7F894A5
:100FB000662321F48C919095892302C08C91892B12
:100FC0008C932FBF089508951F920F920FB60F9222
:100FD00011242F933F934F938F939F93EF93FF93FE
:100FE0008091C00082FD1DC04091C6002091C905BE
:100FF0003091CA052F5F3F4F2F7330708091CB0522
:101000009091CC052817390771F0E091C905F0914E
:10101000CA05E757FA4F40833093CA052093C905A4
:1010200002C08091C600FF91EF919F918F914F91E7
:101030003F912F910F900FBE0F901F901895E09148
:101040001D06F0911E06E05CFF4F81919191208179
:101050003181821B930B8F739070892B11F00E944A
:10106000E30708951F920F920FB60F9211242F934A
:101070003F938F939F93EF93FF9320910D063091B1
:101080000E0680910F06909110062817390731F44B
:101090008091C1008F7D8093C10014C0E0910F0644
:1010A000F0911006E353FA4F208180910F06909142
:1010B000100601968F7390709093100680930F0620
:1010C0002093C600FF91EF919F918F913F912F91B7
:1010D0000F900FBE0F901F901895AF92BF92DF92A6
:1010E000EF92FF920F931F93CF93DF93EC017A015E
:1010F0008B01DD24403081EE580780E0680780E0F6
:10110000780711F0DD24D39491E0A92EB12CEC895D
:10111000FD89DD2069F0C50108A002C0880F991F74
:101120000A94E2F7808360E079E08DE390E005C007
:10113000108260E874E88EE190E0A80197010E94B7
:101140007D0B215030404040504056954795379593
:10115000279580E12030380720F0DD2011F0DD24D4
:10116000D6CFE889F9893083EA89FB89208319A2DF
:10117000EE89FF89408121E030E0C9010C8C02C07A
:10118000880F991F0A94E2F7482B4083EE89FF8964
:101190004081C9010D8C02C0880F991F0A94E2F7A3
:1011A000482B4083EE89FF894081C9010E8C02C023
:1011B000880F991F0A94E2F7482B4083EE89FF8934
:1011C00080810F8C02C0220F331F0A94E2F7209512
:1011D00028232083DF91CF911F910F91FF90EF90F3
:1011E000DF90BF90AF900895DC011C96ED91FC91CB
:1011F0001D97E05CFF4F2191319180819181281BE7
:10120000390B2F733070C9010895DC011C96ED91E4
:10121000FC911D97E05CFF4F20813181E054F0404C
:10122000DF01AE5BBF4F8D919C9111972817390755
:1012300019F42FEF3FEF07C08D919C91E80FF91F34
:101240008081282F30E0C9010895DC011C96ED91C2
:10125000FC911D97E05CFF4F20813181E054F0400C
:10126000DF01AE5BBF4F8D919C9111972817390715
:1012700019F42FEF3FEF10C08D919C911197E80F5B
:10128000F91F20818D919C91119701968F73907019
:1012900011969C938E9330E0C9010895DC019196DC
:1012A0008C919197882339F05496ED91FC91559744
:1012B000808186FFF9CF91961C920895CF93DF939A
:1012C000EC01EE85FF85E05CFF4F20813181E05429
:1012D000F0402F5F3F4F2F733070DF01AE5BBF4F89
:1012E0008D919C91119728173907D1F3E05CFF4F3E
:1012F00080819181E054F040E80FF91F6083EE8512
:10130000FF85E05CFF4F31832083EE89FF892081D8
:1013100081E090E00F8C02C0880F991F0A94E2F7D9
:10132000282B208381E089A3EC89FD89808180645A
:10133000808381E090E0DF91CF91089510921406B0
:101340001092130688EE93E0A0E0B0E080931506BB
:1013500090931606A0931706B093180684E295E0C2
:10136000909312068093110689E895E090931E06EB
:1013700080931D068DEC95E09093200680931F06C8
:1013800085EC90E0909322068093210684EC90E017
:10139000909324068093230680EC90E09093260699
:1013A0008093250681EC90E0909328068093270691
:1013B00082EC90E090932A068093290686EC90E0D8
:1013C00090932C0680932B0684E080932D0683E077
:1013D00080932E0687E080932F0685E08093300669
:1013E00081E0809331060895CF93DF930E94150723
:1013F0000E94AD02CFE1D8E00E9459022097E1F3AC
:101400000E941F08F9CFCF92DF92EF92FF920F93C5
:101410001F93CF93DF937C016B018A01C0E0D0E082
:101420000FC0D6016D916D01D701ED91FC91019036
:10143000F081E02DC7010995C80FD91F0150104058
:101440000115110571F7CE01DF91CF911F910F9119
:10145000FF90EF90DF90CF900895DC01ED91FC912B
:101460000190F081E02D09950895EF92FF920F937E
:101470001F938C01DC01ED91FC910190F081E02D36
:101480006DE009957C01D801ED91FC910190F0810E
:10149000E02DC8016AE009959C012E0D3F1DC90190
:1014A0001F910F91FF90EF900895CF93DF93EC0180
:1014B0006115710519F420E030E00FC0DB010D90DB
:1014C0000020E9F71197A61BB70BE881F98102808C
:1014D000F381E02DAD0109959C01C901DF91CF9108
:1014E00008954F925F927F928F929F92AF92BF9298
:1014F000CF92DF92EF92FF920F931F93DF93CF93E0
:10150000CDB7DEB7A1970FB6F894DEBF0FBECDBF43
:101510002C01742ECB01223008F42AE019A231E20A
:10152000C32ED12CCC0EDD1E822E9924AA24BB24DE
:10153000672D752FA50194010E947D0B79018A0109
:10154000C801B701A50194010E945E0B472D461BFF
:101550000894C108D1084A3014F4405D01C0495CC8
:10156000F6014083E114F1040105110521F07E2C00
:101570005F2DC801DDCFC201B6010E94550AA196B8
:101580000FB6F894DEBF0FBECDBFCF91DF911F9194
:101590000F91FF90EF90DF90CF90BF90AF909F9012
:1015A0008F907F905F904F900895DC012115310559
:1015B00041F4ED91FC910190F081E02D642F0995AB
:1015C00008950E94710A0895EF92FF920F931F935E
:1015D0009A017B0100E010E0B801A7010E94D50A42
:1015E0001F910F91FF90EF900895CF92DF92EF92AD
:1015F000FF920F931F93CF93DF93EC016A017B015E
:101600002115310541F4E881F9810190F081E02D47
:10161000642F09951FC02A303105D1F477FF17C018
:10162000E881F9810190F081E02D6DE209958C014E
:1016300044275527BA014C195D096E097F09CE016F
:101640002AE00E94710A9801280F391F04C02AE07D
:101650000E94710A9C01C901DF91CF911F910F91E6
:10166000FF90EF90DF90CF900895EF92FF920F934D
:101670001F937B019A010027F7FC0095102FB801FA
:10168000A7010E94F50A1F910F91FF90EF90089516
:101690000E94550A0895EF92FF920F931F937C01C9
:1016A0000E94550A8C01C7010E94350A080F191FB4
:1016B000C8011F910F91FF90EF900895629FD00194
:1016C000739FF001829FE00DF11D649FE00DF11DFD
:1016D000929FF00D839FF00D749FF00D659FF00DAC
:1016E0009927729FB00DE11DF91F639FB00DE11D99
:1016F000F91FBD01CF0111240895A1E21A2EAA1BE2
:10170000BB1BFD010DC0AA1FBB1FEE1FFF1FA217B1
:10171000B307E407F50720F0A21BB30BE40BF50BAE
:10172000661F771F881F991F1A9469F76095709537
:10173000809590959B01AC01BD01CF010895EE0FFE
:0E174000FF1F0590F491E02D0994F894FFCF5F
:10174E005472616E73636F64657572203430360047
:10175E004144524153454337372020463147424496
:10176E00005472616D652034303620454E564F5907
:10177E004545002D2D2D3E202320000A4E6F6D6213
:10178E0072652064652062697473206465206461EB
:10179E00746173203A20000A0A5472616E73636F8B
:1017AE0064657572206465207472616D65203430D5
:1017BE003620434F535041532D53415253415420E1
:1017CE00646520463147424420284A65616E2D4C9F
:1017DE006F756973204E617564696E2900414452BC
:1017EE00415345433737202D205472616E73636F1A
:1017FE00646575723430362000312E3200202D2073
:10180E000038206D617273203230313500010000D6
:10181E0000010101000000010000000101010001B2
:10182E0000010100010101010001010000000101A0
:10183E000100010101000001010000000001000192
:10184E000000000000000101000000000100010185
:10185E000001000000000000000001010101000174
:10186E000100010101000000000100000000000164
:10187E000000010101000000000100000101000153
:10188E000000000101000100000000000000000047
:10189E00000000000000000000000000000000003A
:1018AE00000000000000000000000000000000002A
:1018BE00000000000000000000000000000000001A
:1018CE00000000000000000000000000000000000A
:1018DE0000000000000000000000000000000000FA
:1018EE0000000000000000000000000000000000EA
:1018FE0000000000000000000000000000000000DA
:10190E0000000000000000000000000000000000C9
:10191E0000000000000000000000000000000000B9
:10192E0000000000000000000000000000000000A9
:10193E000000000000000000000000000000000099
:10194E000000000000000000000000000000000089
:10195E000000000000000000000000000000000079
:10196E000000000000000000000000000000000069
:10197E000000000000000000000000000000000059
:10198E000000000000000000000000000000000049
:10199E000000000000000000000000000000000039
:1019AE000000000000000000000000000000000029
:1019BE000000000000000000000000000000000019
:1019CE000000000000000000000000000000000009
:1019DE0000000000000000000000000000000000F9
:1019EE0000000000000000000000000000000000E9
:1019FE0000000000000000000000000000000000D9
:101A0E0000000000000000000000000000000000C8
:101A1E0000000000000000000000000000000000B8
:101A2E0000000000000000000000000000000000A8
:101A3E000000000000000000000000000000000098
:101A4E000000000000000000000000000000000088
:101A5E000000000000000000000000000000000078
:101A6E000000000000000000000000000000000068
:101A7E000C00A0AAAAAA6A9A550000000000000055
:101A8E000000000000000000000000000000000048
:101A9E000000000000000000000000000000000038
:101AAE000000000000000000000000000000000028
:101ABE000000000000000000000000000000000018
:101ACE000000000000000000000000000000000008
:101ADE0000000000000000000000000000000000F8
:101AEE0000000000000000000000000000000000E8
:101AFE0000000000000000000000000000000000D8
:101B0E0000000000000000000000000000000000C7
:101B1E0000000000000000000000000000000000B7
:101B2E0000000000000000000000000000000000A7
:101B3E000000000000000000000000000000000097
:101B4E000003000001000800400000010004050D24
:101B5E00000000003005030A00004000140054008D
:101B6E00000000005E09030AF408250905094E0964
:00000001FF
