:100000000C9463000C948B000C948B000C948B006C
:100010000C948B000C948B000C948B000C948B0034
:100020000C948B000C948B000C948B000C94EF03BD
:100030000C948B000C948B000C948B000C948B0014
:100040000C94B6060C948B000C9430080C947E082B
:100050000C948B000C948B000C948B000C948B00F4
:100060000C948B000C948B000000000024002700EF
:100070002A0000000000250028002B0000000000DE
:1000800023002600290004040404040404040202DA
:100090000202020203030303030301020408102007
:1000A0004080010204081020010204081020000012
:1000B0000007000201000003040600000000000029
:1000C00000008D00EA0911241FBECFEFD8E0DEBF8B
:1000D000CDBF15E0A0E0B1E0E6EEF7E102C005908B
:1000E0000D92A235B107D9F716E0A2E5B5E001C03F
:1000F0001D92A535B107E1F710E0C6ECD0E004C0D1
:100100002297FE010E94ED0BC23CD107C9F70E9465
:10011000400A0C94F10B0C940000CF92EF920F93D5
:1001200084E595E068E049E024E005E056E0E52E4E
:1001300037E0C32E0E947D060F91EF90CF90089577
:10014000609152057091530542E050E00BC08081F0
:100150008D932150304031978FEF2F3F3807B9F7FB
:10016000485F5F4FCA0102974617570748F4FA01E4
:10017000EF58FD4FDC01A65ABC4F27E030E0E7CF37
:1001800084E595E060E040E00E949005EAE5F3E058
:10019000A3E7B5E08081992787FD9095880F991F87
:1001A0002181332727FD3095820F931F880F991FD8
:1001B0002281332727FD3095820F931F880F991FC7
:1001C0002381332727FD3095820F931F880F991FB6
:1001D0002481332727FD3095820F931F880F991FA5
:1001E0002581332727FD3095820F931F880F991F94
:1001F0002681332727FD3095820F931F880F991F83
:100200002781332727FD3095820F931F8C931196FA
:100210001C9211973896119684E0EA34F80709F099
:10022000B9CF0895CF92DF92EF92FF920F931F9371
:10023000CF93DF9384E595E060E040E00E94900575
:10024000CFEED1E000E010E0F880E980DA80CB80EA
:100250000034110531F484E595E060E041E00E944E
:1002600090056F2D772767FD7095660F771F8E2D90
:10027000992787FD9095680F791F660F771F8D2D41
:10028000992787FD9095680F791F660F771F8C2D32
:10029000992787FD9095680F791F84E595E040E1E7
:1002A00050E00E94300B0C5F1F4F24960837110559
:1002B00059F6DF91CF911F910F91FF90EF90DF9052
:1002C000CF9008950F931F9304E515E0C8010E9495
:1002D000BF05C80160E040E00E949005C80160E0F1
:1002E00071E00E94940BC80160E041E00E9490051B
:1002F000C80160E171E00E94940B68EE73E080E059
:1003000090E00E94FE06C8010E94BF05C80160E09F
:1003100040E00E949005C80161E271E00E94940BE8
:10032000C80160E041E00E949005C80163E371E00C
:100330000E94940B6091680270916902C8014AE0C2
:1003400050E00E94300B68EE73E080E090E00E9485
:10035000FE06C8010E94BF05C80160E040E00E949F
:1003600090050E941201A3E7B5E0FD010190002075
:10037000E9F73197EA1BFB0BCD016E2F0E946E044B
:100380000E94D6031F910F91089583E396E06BE3DB
:1003900071E00E94940B83E396E068E770E04AE026
:1003A00050E00E94810B8091EF01882331F410927C
:1003B0006A0281E080936B0204C010926A0210927C
:1003C0006B02AFEEB1E022E030E051E04C911196CB
:1003D0008C9111974817A1F4442359F4F901E65977
:1003E000FD4F1082C9010196FC01E659FD4F508373
:1003F00020C0413009F5F901E659FD4F408306C0A0
:10040000442359F4F901E659FD4F1082C9010196C0
:10041000FC01E659FD4F10820CC0413069F4F9012E
:10042000E659FD4F4083C9010196FC01E659FD4F95
:1004300040839C012F5F3F4F119682E0A736B8079B
:1004400029F6309353052093520508958091680250
:1004500090916902C29731F40E9462011092690280
:1004600010926802809168029091690201969093BF
:1004700069028093680284E595E06FE041E00E94A4
:10048000900560916802605C84E595E00E94790ABD
:10049000089580916E05882319F0813049F406C0D3
:1004A00081E080936E050E942602089510926E05E9
:1004B0000895EF92FF920F931F932091A60530911C
:1004C000A7054091A8055091A905809169059091D3
:1004D0006A05A0916B05B0916C0579018A01E81A53
:1004E000F90A0A0B1B0BD801C70185369105A10536
:1004F000B10570F1E0926F05F092700500937105FF
:10050000109372052093690530936A0540936B053B
:1005100050936C0580916D05823081F0833028F412
:10052000882341F08130A1F407C0833049F0843042
:1005300079F40AC081E005C082E003C083E001C015
:1005400084E080936D0504C010926D050E944902FD
:100550001F910F91FF90EF900895AF92BF92CF92AD
:10056000DF92EF92FF920F931F9393E3E92E96E0B1
:10057000F92EC70140E855E260E070E00E94B9083A
:1005800004E515E0C80160E142E020E00E94C705F3
:10059000C8010E94BF0580E293E00E948D04C7015C
:1005A00067E571E00E94970BC7016DE971E00E9459
:1005B000940B89EBA82E81E0B82EC701B5010E94EB
:1005C000940BC7016EEB71E00E94940BB2ECCB2E42
:1005D000B1E0DB2EC701B6010E94970B0E94C50156
:1005E0000E94A000C80160E071E00E94940BC80165
:1005F00060E041E00E949005C801B5010E94940BA3
:10060000C801B6010E94940B68EB7BE080E090E0AB
:100610000E94FE06C8010E94BF05C80160E040E0DC
:100620000E949005C8016FEC71E00E94940BC80114
:1006300060E041E00E949005C8016FED71E00E940A
:10064000940B60ED77E080E090E00E94FE06C80128
:100650000E94BF0510926902109268020E94620116
:100660001F910F91FF90EF90DF90CF90BF90AF90D0
:1006700008952F923F924F925F926F927F929F9236
:10068000AF92BF92CF92DF92EF92FF920F931F93A0
:10069000DF93CF93CDB7DEB762970FB6F894DEBF86
:1006A0000FBECDBF1B012A01DE011196E4E2F5E089
:1006B0004EE001900D924150E1F7009709F455C0CA
:1006C0005C01CC24DD2493E0AA0CBB1CCC1CDD1CFB
:1006D0009A95D1F783E0682E712C6C0E7D1E9924BB
:1006E0009394C101A0E0B0E08F87988BA98BBA8B5F
:1006F000D3012D913C9140E050E060E074E284EF42
:1007000090E00E94C90BCA01B901A60195010E949F
:10071000C90B79018A01B2E0EB16F104010511055C
:1007200048F08F859889A989BA89E816F9060A07D9
:100730001B0748F09394A2E0B0E06A0E7B1EB7E07E
:100740009B16B1F604C0E6E09E1679F006C0F2E012
:10075000EF16F1040105110540F0C101A0E0B0E081
:100760008E159F05A007B10728F4D2011D921C9297
:10077000992403C0F201F182E082892D62960FB6BE
:10078000F894DEBF0FBECDBFCF91DF911F910F91C7
:10079000FF90EF90DF90CF90BF90AF909F907F90B1
:1007A0006F905F904F903F902F90089580919A05A1
:1007B0008823E1F7089568E572E080E090E00E9408
:1007C000FE06809123056091A1050E94DB078091C0
:1007D000520460E00E94DB0710929A0508951F9270
:1007E0000F920FB60F9211242F933F934F935F9365
:1007F0006F937F938F939F93AF93BF93EF93FF93E9
:1008000080919A058823D1F180919B058F5F809319
:100810009B05815099F5E0919C0580919D05E81715
:1008200060F00E94DB0380919E0590919F050196E8
:1008300090939F0580939E0521C0809152049091D2
:10084000A00521E030E0092E02C0220F331F0A94D8
:10085000E2F7F0E0ED5AFB4F608162239F5F9093D7
:10086000A0050E94DB078091A005883038F0109227
:10087000A00580919C058F5F80939C0580919B05CE
:10088000883010F010929B05FF91EF91BF91AF91CE
:100890009F918F917F916F915F914F913F912F9198
:1008A0000F900FBE0F901F9018951F9310929C05EC
:1008B0001092A00510929B056091A10511E061279F
:1008C000809123050E94DB0760E273E080E090E006
:1008D0000E94FE0610939A051F910895482F292F14
:1008E000623610F080E0089580919A058823E1F740
:1008F000ABE5B4E0842F922F9C01F90102C08191F5
:100900008D938E2F841B8617D0F3685F60939D05AF
:100910000E94550480919D050895DF93CF9300D0E8
:10092000CDB7DEB76FEF7FEFAE014F5F5F4F0E9435
:100930003903982F882329F11092800088E0809352
:10094000810080918100892B8093810089819A8127
:10095000909389008093880080916F0082608093DB
:100960006F008091520461E00E949C0780912305F2
:1009700061E00E949C07809123056091A1050E947F
:10098000DB070F900F90CF91DF9108950F931F9386
:100990008C01FC01868160E00E94DB0781E090E031
:1009A0000E945707F801868161E00E94DB0781E021
:1009B00090E00E945707F801868160E00E94DB0703
:1009C00084E690E00E9457071F910F910895CF92FF
:1009D000DF92EF92FF920F931F93CF93DF93D82E66
:1009E000C92E282F392FC9018C01C0E0D0E0E62E96
:1009F000FF24F801878161E00E949C07B7010C2E5B
:100A000002C0759567950A94E2F76170F8018781D5
:100A10000E94DB0721960F5F1F4FC830D10549F7B1
:100A20008D2D9C2D0E94C604DF91CF911F910F91B7
:100A3000FF90EF90DF90CF900895CF92DF92EF92EA
:100A4000FF920F931F93CF93DF93D82EC92E282F99
:100A5000392FC9018C01C0E0D0E0E62EFF24F80157
:100A6000878161E00E949C07B7010C2E02C075953A
:100A700067950A94E2F76170F80187810E94DB07AD
:100A800021960F5F1F4FC430D10549F78D2D9C2D46
:100A90000E94C604DF91CF911F910F91FF90EF90BC
:100AA000DF90CF9008951F93CF93DF93EC01162F23
:100AB0008C81642F0E94DB078D818F3F19F060E0ED
:100AC0000E94DB078F8584FF05C0CE01612F0E9445
:100AD000E7040EC0612F70E084E0759567958A95F4
:100AE000E1F7CE010E941D05CE01612F0E941D0578
:100AF000DF91CF911F91089541E00E94530581E05D
:100B000090E0089540E00E9453050895FC0160893B
:100B1000862F8460808B6C60CF010E9482050895CF
:100B2000DF93CF93CDB7DEB728970FB6F894DEBF2B
:100B30000FBECDBF9C01FE013196AAE3B5E088E06F
:100B40000D9001928150E1F7F9018389481710F067
:100B5000482F4150E42FF0E0EE0FFF1FEC0FFD1F78
:100B60008181680F6068C9010E94820528960FB6CE
:100B7000F894DEBF0FBECDBFCF91DF91089561E045
:100B80000E94820580ED97E00E9457070895CF9359
:100B9000DF93EC01423018F08F8588608F874B8B94
:100BA0001C8A222329F0413019F48F8584608F87B5
:100BB00080E593EC0E9457078C8160E00E94DB0780
:100BC0008E8160E00E94DB078D818F3F19F060E02D
:100BD0000E94DB076F8564FD1DC0CE0163E00E94AB
:100BE0001D0584E991E10E945707CE0163E00E9450
:100BF0001D0584E991E10E945707CE0163E00E9440
:100C00001D0586E990E00E945707CE0162E00E9430
:100C10001D0516C06062CE010E94820584E991E143
:100C20000E9457076F856062CE010E94820586E9A7
:100C300090E00E9457076F856062CE010E94820596
:100C40006F856062CE010E94820584E0888BCE01B0
:100C50000E948605CE010E94BF0582E0898BCE01ED
:100C600066E00E948205DF91CF9108956F927F9296
:100C70008F92AF92CF92EF920F931F93DF93CF9308
:100C8000CDB7DEB73C01162F842FF30144832583B3
:100C90000683E782C086A18682869D8593879E858E
:100CA00094879F8595879889968761E00E949C0725
:100CB000F30185818F3F19F061E00E949C07F301E9
:100CC000868161E00E949C07112319F0F3011786C9
:100CD00003C080E1F3018787C30160E141E020E0C8
:100CE0000E94C705CF91DF911F910F91EF90CF9098
:100CF000AF908F907F906F9008958F92AF92CF9228
:100D0000EF920F931F93CF93DF93DC01362F542F75
:100D1000722F102FAE2C8C2C13961C921E921297B1
:100D200086E395E011969C938E9300D000D0EDB7AA
:100D3000FEB73196CDB7DEB71982118212821382C7
:100D4000CD0161E0432F2FEF052FE72EC12E0E942A
:100D500036060F900F900F900F90DF91CF911F915B
:100D60000F91EF90CF90AF908F9008951F920F92B8
:100D70000FB60F9211242F933F938F939F93AF93AE
:100D8000BF938091A6059091A705A091A805B09169
:100D9000A9053091AA050196A11DB11D232F2D5F34
:100DA0002D3720F02D570196A11DB11D2093AA05C6
:100DB0008093A6059093A705A093A805B093A905D5
:100DC0008091A2059091A305A091A405B091A505DD
:100DD0000196A11DB11D8093A2059093A305A09338
:100DE000A405B093A505BF91AF919F918F913F91BD
:100DF0002F910F900FBE0F901F9018959B01AC0183
:100E00007FB7F8948091A2059091A305A091A405C5
:100E1000B091A50566B5A89B05C06F3F19F0019676
:100E2000A11DB11D7FBFBA2FA92F982F8827860F2C
:100E3000911DA11DB11D62E0880F991FAA1FBB1F44
:100E40006A95D1F7BC012DC0FFB7F8948091A20537
:100E50009091A305A091A405B091A505E6B5A89B26
:100E600005C0EF3F19F00196A11DB11DFFBFBA2FBC
:100E7000A92F982F88278E0F911DA11DB11DE2E08B
:100E8000880F991FAA1FBB1FEA95D1F7861B970BE6
:100E9000885E9340C8F22150304040405040685135
:100EA0007C4F211531054105510571F608950197D3
:100EB00039F0880F991F880F991F02970197F1F752
:100EC0000895789484B5826084BD84B5816084BDC2
:100ED00085B5826085BD85B5816085BDEEE6F0E0B3
:100EE000808181608083E1E8F0E01082808182600F
:100EF0008083808181608083E0E8F0E08081816090
:100F00008083E1EBF0E0808184608083E0EBF0E0BF
:100F1000808181608083EAE7F0E080818460808363
:100F2000808182608083808181608083808180680D
:100F300080831092C1000895CF93DF93482F50E033
:100F4000CA0186569F4FFC0134914A575F4FFA0100
:100F50008491882369F190E0880F991FFC01E8597A
:100F6000FF4FA591B491FC01EE58FF4FC591D4916C
:100F7000662351F42FB7F8948C91932F9095892381
:100F80008C93888189230BC0623061F42FB7F89469
:100F90008C91932F909589238C938881832B8883C0
:100FA0002FBF06C09FB7F8948C91832B8C939FBF63
:100FB000DF91CF910895482F50E0CA0182559F4F8D
:100FC000FC012491CA0186569F4FFC0194914A5717
:100FD0005F4FFA013491332309F440C0222351F1C9
:100FE000233071F0243028F42130A1F0223011F5A3
:100FF00014C02630B1F02730C1F02430D9F404C039
:10100000809180008F7703C0809180008F7D8093D6
:10101000800010C084B58F7702C084B58F7D84BDF9
:1010200009C08091B0008F7703C08091B0008F7DA0
:101030008093B000E32FF0E0EE0FFF1FEE58FF4F5C
:10104000A591B4912FB7F894662321F48C919095D3
:10105000892302C08C91892B8C932FBF089508950A
:101060001F920F920FB60F9211242F933F934F931D
:101070008F939F93EF93FF938091C00082FD1DC0DB
:101080004091C6002091EB053091EC052F5F3F4F5A
:101090002F7330708091ED059091EE052817390778
:1010A00071F0E091EB05F091EC05E555FA4F4083C6
:1010B0003093EC052093EB0502C08091C600FF91B0
:1010C000EF919F918F914F913F912F910F900FBE74
:1010D0000F901F901895E0913F06F0914006E05C5C
:1010E000FF4F8191919120813181821B930B8F73EE
:1010F0009070892B11F00E942F0808951F920F9273
:101100000FB60F9211242F933F938F939F93EF93DA
:10111000FF9320912F0630913006809131069091F7
:1011200032062817390731F48091C1008F7D8093F2
:10113000C10014C0E0913106F0913206E151FA4F3E
:101140002081809131069091320601968F739070C4
:1011500090933206809331062093C600FF91EF9161
:101160009F918F913F912F910F900FBE0F901F90E5
:101170001895AF92BF92DF92EF92FF920F931F9359
:10118000CF93DF93EC017A018B01DD24403081EEB7
:10119000580780E0680780E0780711F0DD24D394D9
:1011A00091E0A92EB12CEC89FD89DD2069F0C50103
:1011B00008A002C0880F991F0A94E2F7808360E0BC
:1011C00079E08DE390E005C0108260E874E88EE17C
:1011D00090E0A80197010E94C90B21503040404087
:1011E0005040569547953795279580E12030380730
:1011F00020F0DD2011F0DD24D6CFE889F989308395
:10120000EA89FB89208319A2EE89FF89408121E0C8
:1012100030E0C9010C8C02C0880F991F0A94E2F7D4
:10122000482B4083EE89FF894081C9010D8C02C0A3
:10123000880F991F0A94E2F7482B4083EE89FF89B3
:101240004081C9010E8C02C0880F991F0A94E2F7F1
:10125000482B4083EE89FF8980810F8C02C0220FCA
:10126000331F0A94E2F7209528232083DF91CF9142
:101270001F910F91FF90EF90DF90BF90AF90089576
:10128000DC011C96ED91FC911D97E05CFF4F2191D4
:10129000319180819181281B390B2F733070C901E6
:1012A0000895DC011C96ED91FC911D97E05CFF4FC9
:1012B00020813181E054F040DF01AE5BBF4F8D9162
:1012C0009C9111972817390719F42FEF3FEF07C0AA
:1012D0008D919C91E80FF91F8081282F30E0C90182
:1012E0000895DC011C96ED91FC911D97E05CFF4F89
:1012F00020813181E054F040DF01AE5BBF4F8D9122
:101300009C9111972817390719F42FEF3FEF10C060
:101310008D919C911197E80FF91F20818D919C91DF
:10132000119701968F73907011969C938E9330E075
:10133000C9010895DC0191968C919197882339F029
:101340005496ED91FC915597808186FFF9CF919647
:101350001C920895CF93DF93EC01EE85FF85E05C4E
:10136000FF4F20813181E054F0402F5F3F4F2F73BA
:101370003070DF01AE5BBF4F8D919C9111972817A4
:101380003907D1F3E05CFF4F80819181E054F04058
:10139000E80FF91F6083EE85FF85E05CFF4F318326
:1013A0002083EE89FF89208181E090E00F8C02C0CC
:1013B000880F991F0A94E2F7282B208381E089A3E4
:1013C000EC89FD8980818064808381E090E0DF91F9
:1013D000CF910895109236061092350688EE93E06C
:1013E000A0E0B0E08093370690933806A0933906CA
:1013F000B0933A0686E495E09093340680933306E2
:101400008BEA95E09093400680933F068FEE95E03F
:10141000909342068093410685EC90E090934406B9
:101420008093430684EC90E09093460680934506B3
:1014300080EC90E0909348068093470681EC90E022
:1014400090934A068093490682EC90E090934C0674
:1014500080934B0686EC90E090934E0680934D0669
:1014600084E080934F0683E08093500687E080936A
:10147000510685E08093520681E0809353060895DB
:10148000CF93DF930E9461070E94AD02CBE6D8E0C4
:101490000E9459022097E1F30E946B08F9CFCF9286
:1014A000DF92EF92FF920F931F93CF93DF937C0114
:1014B0006B018A01C0E0D0E00FC0D6016D916D01D3
:1014C000D701ED91FC910190F081E02DC7010995C4
:1014D000C80FD91F015010400115110571F7CE0139
:1014E000DF91CF911F910F91FF90EF90DF90CF9000
:1014F0000895DC01ED91FC910190F081E02D0995BA
:101500000895EF92FF920F931F938C01DC01ED91F0
:10151000FC910190F081E02D6DE009957C01D801EE
:10152000ED91FC910190F081E02DC8016AE00995F0
:101530009C012E0D3F1DC9011F910F91FF90EF904F
:101540000895CF93DF93EC016115710519F420E044
:1015500030E00FC0DB010D900020E9F71197A61BCA
:10156000B70BE881F9810280F381E02DAD01099587
:101570009C01C901DF91CF9108954F925F927F92B4
:101580008F929F92AF92BF92CF92DF92EF92FF9293
:101590000F931F93DF93CF93CDB7DEB7A1970FB60D
:1015A000F894DEBF0FBECDBF2C01742ECB012230CC
:1015B00008F42AE019A231E2C32ED12CCC0EDD1E94
:1015C000822E9924AA24BB24672D752FA50194018E
:1015D0000E94C90B79018A01C801B701A5019401D4
:1015E0000E94AA0B472D461B0894C108D1084A3017
:1015F00014F4405D01C0495CF6014083E114F1043C
:101600000105110521F07E2C5F2DC801DDCFC2013F
:10161000B6010E94A10AA1960FB6F894DEBF0FBED4
:10162000CDBFCF91DF911F910F91FF90EF90DF9091
:10163000CF90BF90AF909F908F907F905F904F9092
:101640000895DC012115310541F4ED91FC910190E3
:10165000F081E02D642F099508950E94BD0A089538
:10166000EF92FF920F931F939A017B0100E010E02D
:10167000B801A7010E94210B1F910F91FF90EF90DD
:101680000895CF92DF92EF92FF920F931F93CF9323
:10169000DF93EC016A017B012115310541F4E881FA
:1016A000F9810190F081E02D642F09951FC02A3047
:1016B0003105D1F477FF17C0E881F9810190F081FD
:1016C000E02D6DE209958C0144275527BA014C198C
:1016D0005D096E097F09CE012AE00E94BD0A9801CA
:1016E000280F391F04C02AE00E94BD0A9C01C901CD
:1016F000DF91CF911F910F91FF90EF90DF90CF90EE
:101700000895EF92FF920F931F937B019A01002798
:10171000F7FC0095102FB801A7010E94410B1F9103
:101720000F91FF90EF9008950E94A10A0895EF9203
:10173000FF920F931F937C010E94A10A8C01C701A5
:101740000E94810A080F191FC8011F910F91FF9075
:10175000EF900895629FD001739FF001829FE00D8A
:10176000F11D649FE00DF11D929FF00D839FF00D20
:10177000749FF00D659FF00D9927729FB00DE11DCC
:10178000F91F639FB00DE11DF91FBD01CF011124A9
:101790000895A1E21A2EAA1BBB1BFD010DC0AA1FB2
:1017A000BB1FEE1FFF1FA217B307E407F50720F0CA
:1017B000A21BB30BE40BF50B661F771F881F991F45
:1017C0001A9469F760957095809590959B01AC018E
:1017D000BD01CF010895EE0FFF1F0590F491E02D9C
:0617E0000994F894FFCF0C
:1017E6005472616E73636F646575722034303600AF
:1017F60041445241534543373720204631474244FE
:10180600005472616D652034303620454E564F596E
:101816004545002D2D2D3E202320000A4E6F6D627A
:101826007265206465206269747320646520646152
:10183600746173203A20000A0A5472616E73636FF2
:1018460064657572206465207472616D652034303C
:101856003620434F535041532D5341525341542048
:10186600646520463147424420284A65616E2D4C06
:101876006F756973204E617564696E290041445223
:10188600415345433737202D205472616E73636F81
:1018960064657572343036200076312E3300202D83
:1018A6002000202031362F30332F323031350041A1
:1018B6004452415345433737204631474244002A74
:1018C6002A2A2A2A2A2A2A2A2A2A2A2A2A2A0001C5
:1018D60000000001010100000001000000010101FB
:1018E60000010001010001010101000101000000E9
:1018F60001010100010101000001010000000001D9
:1019060000010000000000000101000000000100CD
:1019160001010001000000000000000001010101BA
:1019260000010100010101000000000100000000AB
:10193600000100000101010000000001000001019A
:10194600000100000001010001000000000000008D
:101956000000000000000000000000000000000081
:101966000000000000000000000000000000000071
:101976000000000000000000000000000000000061
:101986000000000000000000000000000000000051
:101996000000000000000000000000000000000041
:1019A6000000000000000000000000000000000031
:1019B6000000000000000000000000000000000021
:1019C6000000000000000000000000000000000011
:1019D6000000000000000000000000000000000001
:1019E60000000000000000000000000000000000F1
:1019F60000000000000000000000000000000000E1
:101A060000000000000000000000000000000000D0
:101A160000000000000000000000000000000000C0
:101A260000000000000000000000000000000000B0
:101A360000000000000000000000000000000000A0
:101A46000000000000000000000000000000000090
:101A56000000000000000000000000000000000080
:101A66000000000000000000000000000000000070
:101A76000000000000000000000000000000000060
:101A86000000000000000000000000000000000050
:101A96000000000000000000000000000000000040
:101AA6000000000000000000000000000000000030
:101AB6000000000000000000000000000000000020
:101AC6000000000000000000000000000000000010
:101AD6000000000000000000000000000000000000
:101AE60000000000000000000000000000000000F0
:101AF60000000000000000000000000000000000E0
:101B060000000000000000000000000000000000CF
:101B160000000000000000000000000000000000BF
:101B260000000000000000000000000000000000AF
:101B360000000C00A0AAAAAA6A9A5500000000009C
:101B4600000000000000000000000000000000008F
:101B5600000000000000000000000000000000007F
:101B6600000000000000000000000000000000006F
:101B7600000000000000000000000000000000005F
:101B8600000000000000000000000000000000004F
:101B9600000000000000000000000000000000003F
:101BA600000000000000000000000000000000002F
:101BB600000000000000000000000000000000001F
:101BC600000000000000000000000000000000000F
:101BD60000000000000000000000000000000000FF
:101BE60000000000000000000000000000000000EF
:101BF60000000000000000000000000000000000DF
:101C0600000000030000010008004000000100047D
:101C1600050D000000007C054F0A0000400014007E
:101C2600540000000000AA094F0A40097109510931
:021C36009A0909
:00000001FF
