:1000000003C100002EC100002CC100002AC1000065
:1000100028C1000026C1000024C1000022C1000048
:1000200020C100001EC100001CC100001AC1000058
:1000300018C1000016C1000014C1000012C1000068
:1000400010C100000EC100000CC100000AC1000078
:1000500008C1000006C1000004C100000C94BC0BE4
:1000600000C100000C94BD0D0C94010FFAC00000FB
:10007000F8C00000F6C00000F4C00000F2C00000AC
:10008000F0C00000EEC00000ECC00000EAC00000BC
:100090000C94FD0D0C94400FE4C00000E2C0000081
:1000A000E0C00000DEC00000DCC00000DAC00000DC
:1000B000D8C00000D6C00000D4C00000D2C00000EC
:1000C000D0C00000CEC00000CCC000000C943D0E9B
:1000D0000C947F0FC6C000000C947D0E0C94BE0FD4
:1000E000C0C0000000002100240027002A002D00CD
:1000F0003000330001010000040107010A01000083
:100100002200250028002B002E00310034000201BF
:100110000000050108010B0100002000230026005B
:1001200029002C002F00320000010000030106010D
:10013000090105050505070508080808020202026D
:100140000A0A080804040404010101010101010173
:100150000303030303030303040707070C0C0C0C3E
:100160000C0C0C0C02020202060606060606060627
:100170000B0B0B0B0B0B0B0B0102102020080810B4
:100180002040102040800201020108040201010207
:1001900004081020408080402010080402018004E0
:1001A000020180402010080402010804020101023B
:1001B0000408102040800102040810204080000044
:1001C000090A02080B0C0D070603040100000000D9
:1001D000000000000000000000000000000000001F
:1001E0000000000000000000000011100F000000DF
:1001F00000000000000000000000000000000000FF
:10020000000000003E032E1111241FBECFEFD1E2EB
:10021000DEBFCDBF00E00CBF13E0A0E0B2E0EEE037
:10022000F2E300E00BBF02C007900D92A431B107CA
:10023000D9F71BBE17E0A4E1B3E001C01D92A53CB5
:10024000B107E1F712E0C8E0D2E004C02297FE0156
:100250000E94CA18C430D107C9F70E9464120C94D6
:100260000519CECECF93DF93BC018230910510F4F7
:1002700062E070E0A091C307B091C407ED01E0E037
:10028000F0E040E050E021C088819981861797070F
:1002900069F48A819B81309719F09383828304C02B
:1002A0009093C4078093C307FE0134C06817790791
:1002B00038F44115510519F08417950708F4AC017D
:1002C000FE018A819B819C01E9012097E9F6411595
:1002D0005105A9F1CA01861B970B049708F4BA01CE
:1002E000E0E0F0E02AC08D919C911197841795076A
:1002F000F9F46417750781F412968D919C91139708
:10030000309719F09383828304C09093C40780933D
:10031000C307FD0132964CC0CA01861B970BFD0135
:10032000E80FF91F6193719302978D939C9340C0DE
:10033000FD01828193819C01D9011097A1F68091E2
:10034000C1079091C207892B41F48091F0029091EE
:10035000F1029093C2078093C1074091F20250913D
:10036000F3024115510541F44DB75EB78091EE029D
:100370009091EF02481B590B2091C1073091C207A1
:10038000CA01821B930B8617970780F0AB014E5F63
:100390005F4F8417950750F0420F531F5093C207C9
:1003A0004093C107F9016193719302C0E0E0F0E06E
:1003B000CF01DF91CF910895CF93DF93009709F498
:1003C00050C0EC0122971B821A82A091C307B09102
:1003D000C407109709F140E050E0AC17BD0708F1E1
:1003E000BB83AA83FE0121913191E20FF31FAE1767
:1003F000BF0779F48D919C911197280F391F2E5FBB
:100400003F4F3983288312968D919C9113979B833C
:100410008A834115510571F4D093C407C093C30773
:1004200020C012968D919C911397AD01009711F009
:10043000DC01D3CFFA01D383C28321913191E20F42
:10044000F31FCE17DF0769F488819981280F391FC0
:100450002E5F3F4FFA01318320838A819B819383F2
:100460008283DF91CF910895A0E0B0E0EAE3F2E06B
:100470000C94D0186C01009721F4CB01F3DE6C01D1
:10048000BDC08EEF882E8FEF982E8C0C9D1C8601A0
:10049000060F171F0815190508F4AEC0F401A08156
:1004A000B181A617B707B0F0A530B10508F4A6C012
:1004B000CD0104978617970708F4A0C01297A61BD2
:1004C000B70BF801A193B193D4016D937C93CF0145
:1004D00073DF94C07B01EA1AFB0AEEEFFFEFEE0E2A
:1004E000FF1E36016A0E7B1EC091C307D091C40760
:1004F00044245524AA24BB244AC0C615D705E1F5D7
:10050000488159814E155F05B8F1CA0104978E15CF
:100510009F05B0F41296A40FB51FF401B183A08318
:100520002A813B814114510431F0D20113963C934E
:100530002E93129763C03093C4072093C3075EC005
:100540008A819B81F80193838283425050404E19E7
:100550005F09518340834114510431F0D201139655
:100560001C930E93129704C01093C4070093C30703
:10057000F4017183608342C088819981A816B9060D
:1005800008F45C012E018A819B819C01E90120977E
:1005900009F0B3CF8091C1079091C20786159705E6
:1005A000E9F4A616B706D0F42091F2023091F302D6
:1005B0002115310541F42DB73EB78091EE0290919F
:1005C000EF02281B390B02171307B0F41093C20770
:1005D0000093C107D4016D937C9310C0CB0142DE20
:1005E000EC01009749F0F40140815181B6010CD033
:1005F000C601E2DE6E0102C0CC24DD24C601CDB707
:10060000DEB7E0E10C94EC18FB01DC0102C00190C4
:100610000D9241505040D8F70895FB01DC018D91B7
:10062000019080190110D9F3990B0895FB01DC01A9
:1006300001900D920020E1F708958091970488239E
:1006400019F08130D1F417C081E080939704809134
:100650000E0590910F05019690930F0580930E055E
:1006600006975CF010929D0410929C0410920F0566
:1006700010920E050895109297040895CF92EF926C
:100680000F9384E193E060E070E00E94640B8DE7DB
:1006900094E068E049E024E005E056E0E52E37E02C
:1006A000C32EE0D30F91EF90CF900895BF92CF92D9
:1006B000DF92EF92FF920F931F93DF93CF93CDB70B
:1006C000DEB72E970FB6F894DEBF0FBECDBF8E01FA
:1006D0000F5F1F4FC80160E072E00E94B915BB2494
:1006E000B394F8E0CF2ED12CCC0EDD1EF02EE12EEF
:1006F0008DE797E00E94841018161906CCF78DE755
:1007000097E00E94B510682F8532F9F084E193E0FC
:10071000B2D4892B69F384E193E060E070E0F2D316
:10072000BC01C6010E94B9158F2D9E2DB6010E94F5
:10073000D215C6010E94E7158F2D9E2D61E072E053
:100740000E9430158823E1F4D3CF00919C041091CE
:100750009D048DE797E00E942E15000F111F025691
:100760001B4FF80171836083B092020580919C0455
:1007700090919D04019690939D0480939C04B8CF22
:100780008F2D9E2D0E94E7152E960FB6F894DEBF92
:100790000FBECDBFCF91DF911F910F91FF90EF90D2
:1007A000DF90CF90BF9008958DE794E06FE040E038
:1007B00088D290E080910D05882309F491E0909310
:1007C0000D05992329F08DE794E067E072E004C0FD
:1007D0008DE794E069E072E00C949513CF93DF937A
:1007E0008DE794E060E040E06CD284E193E07AD35E
:1007F000AB01BC01409303055093040560930505CC
:10080000709306058DE794E022E030E00E946814C2
:100810008DE794E069E072E00E94951384E193E033
:1008200064E070E06FD3BC018DE794E00E94951303
:100830008DE794E069E072E00E94951384E193E013
:1008400059D3AB01BC014093070550930805609351
:10085000090570930A058DE794E022E030E00E94DC
:1008600068148DE794E069E072E00E94951384E1DA
:1008700093E066E070E046D3BC018DE794E00E940F
:10088000951360919C0470919D0416161706C4F58B
:10089000CEE9D4E0FE0140E050E09B01220F331F7F
:1008A0002C0F3D1F81919191480F591FE217F307BB
:1008B000C9F7CA010E947F1870930C0560930B055D
:1008C00089E397E06BE072E00E94951360910B055D
:1008D00070910C0589E397E04AE050E00E94831391
:1008E00089E397E06DE072E00E946A141992199210
:1008F00085E0C230D807D1F710929D0410929C0475
:100900008DE794E067E041E0DCD18DE794E060E1C1
:1009100072E00E94951360910B0570910C058DE7B4
:1009200094E04AE050E00E9483138DE794E062E196
:1009300072E00E949513DF91CF9108958DE794E0C6
:1009400060E041E0BED184E193E0C4D220E030E039
:1009500040E050E00E94F517882354F084E193E0D2
:10096000B9D220E030E040E05FE30E94ED1509C01D
:1009700084E193E0AFD220E030E040E05FE30E940A
:10098000EC150E94BD16AB01BC018DE794E02AE096
:1009900030E00C944513EF92FF920F931F93209138
:1009A0001405309115054091160550911705809159
:1009B000920490919304A0919404B09195047901CC
:1009C0008A01E81AF90A0A0B1B0BD801C701853600
:1009D0009105A105B105A0F1E0929804F092990467
:1009E00000939A0410939B042093920430939304F1
:1009F0004093940450939504809196048230A1F022
:100A0000833028F4882341F08130D1F407C083304B
:100A100069F08430A9F411C049DE09C08091020553
:100A2000882329F0DBDE03C0BFDE01C087DF8091B1
:100A300096048F5F8093960403C010929604FDDDA8
:100A40001F910F91FF90EF900895AF92BF92CF92B8
:100A5000DF92EF92FF920F931F9399E3E92E97E0B5
:100A6000F92EC70140EC52E160E070E00E94FD0FFA
:100A70008DE797E040EC52E160E070E00E94FD0FEE
:100A80000DE714E0C80160E142E020E04DD1C8016B
:100A900046D1C80160E040E014D1C70166E172E0D0
:100AA0000E946A148FE5A82E82E0B82EC701B50116
:100AB0000E949513C70165E672E00E949513B9E69E
:100AC000CB2EB2E0DB2EC701B6010E946A14C8012A
:100AD00064E772E00E949513C80160E041E0F1D044
:100AE000C80165E872E00E94951360ED77E080E050
:100AF00090E098D6C80113D1C80160E040E0E1D091
:100B0000C801B5010E949513C801B6010E94951352
:100B100060ED77E080E090E085D6C80160E041E0DC
:100B2000D0D0C70166E972E00E949513C8016DEB51
:100B300072E00E949513BADDC7016DEC72E00E946D
:100B40006A14C801ECD04ADE1F910F91FF90EF901C
:100B5000DF90CF90BF90AF9008950F931F938C01BB
:100B6000FC01868160E0D6D781E090E0B4D6F80140
:100B7000868161E0CFD781E090E0ADD6F801868133
:100B800060E0C8D784E690E0A6D61F910F91089543
:100B9000CF92DF92EF92FF920F931F93CF93DF9349
:100BA000D82EC92E282F392FC9018C01C0E0D0E0E2
:100BB000E62EFF24F801878161E0F9D6B7010C2EFB
:100BC00002C0759567950A94E2F76170F801878114
:100BD000A1D721960F5F1F4FC830D10559F78D2D32
:100BE0009C2DBBDFDF91CF911F910F91FF90EF9074
:100BF000DF90CF900895CF92DF92EF92FF920F9304
:100C00001F93CF93DF93D82EC92E282F392FC901D8
:100C10008C01C0E0D0E0E62EFF24F801878161E07E
:100C2000C6D6B7010C2E02C0759567950A94E2F7F7
:100C30006170F80187816ED721960F5F1F4FC43016
:100C4000D10559F78D2D9C2D88DFDF91CF911F9114
:100C50000F91FF90EF90DF90CF9008951F93CF9367
:100C6000DF93EC01162F8C81642F54D78D818F3F39
:100C700011F060E04FD78F8584FF04C0CE01612F53
:100C800087DF0CC0612F70E084E0759567958A95C9
:100C9000E1F7CE01B0DFCE01612FADDFDF91CF9163
:100CA0001F91089541E0DADF81E090E0089540E08F
:100CB000D5CFFC016089862F8460808B6C60CF016A
:100CC000F6CFDF93CF93CDB7DEB728970FB6F89462
:100CD000DEBF0FBECDBF9C01FE013196ACEFB2E08E
:100CE00088E00D9001928150E1F7F901838948175E
:100CF00010F0482F4150E42FF0E0EE0FFF1FEC0FF3
:100D0000FD1F8181680F6068C901D1DF28960FB689
:100D1000F894DEBF0FBECDBFCF91DF91089561E0A3
:100D2000C6DF80ED97E0D7C5CF93DF93EC0142306B
:100D300018F08F8588608F874B8B1C8A222329F0BF
:100D4000413019F48F8584608F8780E593ECC3D59B
:100D50008C8160E0DFD68E8160E0DCD68D818F3FB4
:100D600011F060E0D7D66F8564FD16C0CE0163E058
:100D700042DF84E991E1AFD5CE0163E03CDF84E955
:100D800091E1A9D5CE0163E036DF86E990E0A3D5F5
:100D9000CE0162E030DF11C06062CE0188DF84E9FD
:100DA00091E199D56F856062CE0181DF86E990E09F
:100DB00092D56F856062CE017ADF6F856062CE0169
:100DC00076DF84E0888BCE0174DFCE01A8DF82E07D
:100DD000898BCE0166E06BDFDF91CF9108956F9232
:100DE0007F928F92AF92CF92EF920F931F93DF93E8
:100DF000CF93CDB7DEB73C01162F842FF301448388
:100E000025830683E782C086A18682869E85938796
:100E10009F859487988995879989968761E0C7D53A
:100E2000F30185818F3F11F061E0C1D5F301868127
:100E300061E0BDD5112319F0F301178603C080E1ED
:100E4000F3018787C30160E141E020E06DDFCF91CE
:100E5000DF911F910F91EF90CF90AF908F907F9087
:100E60006F9008958F92AF92CF92EF920F931F934E
:100E7000CF93DF93DC01362F542F722F102FAE2C1F
:100E80008C2C13961C921E92129788EF92E011966A
:100E90009C938E9300D00F92EDB7FEB73196CDB7ED
:100EA000DEB71982118212821382CD0161E0432FD5
:100EB0002FEF052FE72EC12E92DF0F900F900F908E
:100EC0000F90DF91CF911F910F91EF90CF90AF9046
:100ED0008F900895FC012281338144815581B901AD
:100EE000CA010895FC012781308541855285B901E9
:100EF000CA010895FC012385348545855685B901CD
:100F0000CA010895FB01EE0FFF1FE80FF91FE55816
:100F1000FF4F8081918108952F923F924F925F926F
:100F20006F927F928F929F92AF92BF92CF92DF92F9
:100F3000EF92FF920F931F93CF93DF93FB013080CB
:100F40008DE2381629F060E070E08BE2381611F47B
:100F500061E070E0EF01C60FD71FCC24DD247601DD
:100F60000F2EF0E04F2EF0E05F2EF0E06F2EF0E05D
:100F70007F2EF02D0F2EFDEC8F2EFCEC9F2EFCEC27
:100F8000AF2EFDE3BF2EF02D222443C06E3219F4A4
:100F9000222423943DC0062F112707FD10952220FF
:100FA000B1F4C701B6012AE030E040E050E00E9411
:100FB00060186B017C0100531040C801AA2797FDFF
:100FC000A095BA2FC80ED91EEA1EFB1E21C00053E1
:100FD0001040B801882777FD8095982F0E94F01661
:100FE0009B01AC01C501B4010E94F9179B01AC0142
:100FF000C301B2010E94ED152B013C01C501B401F2
:1010000020E030E040E251E40E9455164B015C01C3
:1010100021966881662309F0B9CFC701B6010E9405
:10102000F0169B01AC01C301B2010E94ED157B01DA
:101030008C018DE2381651F460E070E080E090E0C1
:10104000A80197010E94EC157B018C01B701C80132
:10105000DF91CF911F910F91FF90EF90DF90CF9094
:10106000BF90AF909F908F907F906F905F904F90C8
:101070003F902F900895AF92BF92CF92DF92EF9260
:10108000FF920F931F93CF93DF93EC01C55ADE4F6E
:1010900088819981CB55D1408436910584F4C75419
:1010A000DF4F88819981C95BD0404E9744F4CD5978
:1010B000DE4F88819981C356D1400F9734F0C15AD1
:1010C000DE4F19821882CF55D1406A3011F06D3051
:1010D00031F4C15ADE4F19821882CF55D140AE018A
:1010E000415A5E4F6432E1F4C35ADE4F19821882CE
:1010F000249619821882C85AD04019821882C6557F
:10110000DF4F19821882C85AD0406883C056DF4F1B
:1011100081E090E099838883EA0199838883C6C23D
:10112000FA01808191818130910579F082309105B9
:1011300024F4892B09F4BAC2B5C28230910509F4AE
:101140009DC0039709F0AEC2E6C0C55ADE4FE881E4
:10115000F981CB55D140E730F1056CF4E852FD4FF1
:101160008081681741F4FE01E35AFE4F808191812E
:10117000019691838083DE01A55ABE4F8D919C918B
:101180001197FE01E80FF91FE554FF4F60830196A8
:101190008D939C936A3269F1DE01A754BF4FAE0173
:1011A0004D595E4F01E6C02E01E0D02ECC0EDD1E63
:1011B0006C3209F044C02D913C911197C901880F00
:1011C000991FC80FD91FC15EDE4FE881F981EA017E
:1011D00088819981E80FF91F10822F5F3F4F2D936F
:1011E0003C9319821882F601808191812CE230E0D3
:1011F00042C0AE0147545F4FFA0120813181F901AD
:10120000EE0FFF1FEC0FFD1FE15EFE4F0190F0811E
:10121000E02DDE01AD59BE4F8D919C911197E80FE5
:10122000F91F10822F5F3F4FFA01318320831D92F7
:101230001C92FE01E15AFE4F8081918168C0FA0143
:10124000208131818D919C91880F991FC80FD91FE2
:10125000C15EDE4FE881F981E20FF31F60832F5FEB
:101260003F4FEA0139832883862F992787FD909580
:10127000F60120813181822793274AC0DE01A55AD9
:10128000BE4F8D919C911197FE01E80FF91FE55417
:10129000FF4F608301968D939C93DE01AD59BE4F45
:1012A0008D919C911197C754DF4FE881F981C95BFB
:1012B000D040EE0FFF1FEC0FFD1FE15EFE4F0190CF
:1012C000F081E02DE80FF91F608301968D939C93C8
:1012D000CF59DE4F48815981C156D140262F33273F
:1012E00027FD309561341CF0C901C79702C0C901C0
:1012F000C097CF59DE4F24E0880F991F2A95E1F758
:10130000481B590B59834883FE01929182910196A3
:1013100091838083CBC1DE01A55ABE4F8D919C91F4
:101320001197FE01E80FF91FE554FF4F6083019606
:10133000FE01E80FF91FE554FF4F108201968D93CF
:101340009C93CE018D599E4FFC0120813181DE019D
:10135000A754BF4FED91FC911197EE0FFF1FEC0FBB
:10136000FD1FE15EFE4F0190F081E02DE20FF31FC3
:1013700060832F5F3F4FFC01318320838D919C91CF
:101380001197FC01EE0FFF1FEC0FFD1FE15EFE4FFA
:101390000190F081E02DE20FF31F108201968D93F2
:1013A0009C93FA0111821082CF59DE4F8881998176
:1013B000C156D140262F332727FD309561341CF0CC
:1013C0002753304002C020533040821B930BCF592B
:1013D000DE4F99838883C156D140892B09F066C1BD
:1013E00088819981892BA1F0C35ADE4F8881998128
:1013F000CD55D140069709F059C10AC0FE01E80F4A
:10140000F91FE554FF4F8081EB5BF040878B03C0F1
:10141000DE01A55ABE4F8D919C91119701971196AF
:101420009C938E9397FFEACFBE0169547F4FFB01D7
:10143000118210826B01F9EBAF2EB12CAC0EBD1EE8
:10144000AE014D595E4F33C0FA01118210820CC0BB
:101450000190F081E02DE80FF91F2083FA018081CF
:101460009181019691838083F601A081B181FA0177
:1014700080819181AA0FBB1FAC0FBD1FA15EBE4F23
:10148000ED91FC911197E80FF91F2081FD01E45ABD
:10149000F0402223E9F60190F081E02DE80FF91FDA
:1014A0001082FB0180819181019691838083F601F6
:1014B00020813181F501808191812817390724F23B
:1014C000C35ADE4F88819981CD55D140069709F0E6
:1014D000E6C0CF5DDE4F68817981C152D140CE0137
:1014E0001BDD6A837B838C839D83CD5DDE4FE8812A
:1014F000F981C352D14080818E83CB5DDE4F6881FC
:101500007981C552D140CE0107DD20E030E048ECC2
:1015100052E40E945516D62EC72EB82EA92E262F7D
:10152000372F482F592F2F83388749875A87B9017A
:10153000CA010E942B177B018C01CB59DE4F6883B7
:1015400079838A839B83C556D1406D2D7C2D8B2D4D
:101550009A2DA80197010E94EC1520E030E048EC9C
:1015600052E40E94F91720E030E040E752E40E9484
:1015700055166F83788789879A87A80197010E94FB
:10158000ED159B01AC016F83788789879A87C95DC8
:10159000DE4FE881F981C752D1408081833551F413
:1015A00060E070E080E090E00E94EC156F83788747
:1015B00089879A87C75DDE4F68817981C952D1409A
:1015C000CE01AADC20E030E048EC52E40E9455163F
:1015D000D62EC72EB82EA92E262F372F482F592F9B
:1015E0002B873C874D875E87B901CA010E942B1764
:1015F0007B018C01CB59DE4F688379838A839B837F
:10160000C556D1406D2D7C2D8B2D9A2DA8019701AB
:101610000E94EC1520E030E048EC52E40E94F917FB
:1016200020E030E040E752E40E9455166B877C874B
:101630008D879E87A80197010E94ED159B01AC0143
:101640006B877C878D879E87C55DDE4FE881F9813A
:10165000CB52D1408081873551F460E070E080E06A
:1016600090E00E94EC156B877C878D879E87C35D19
:10167000DE4F68817981CD52D140CE014DDC6F873C
:10168000788B898B9A8BC15DDE4F68817981CF52CF
:10169000D140CE0141DC6B8B7C8B8D8B9E8B21E00E
:1016A00030E006C0C15ADE4F1982188220E030E0D7
:1016B000C901DF91CF911F910F91FF90EF90DF90C3
:1016C000CF90BF90AF9008950F931F93CF93DF9368
:1016D000FC017183608380E090E0A0E0B0E0828351
:1016E0009383A483B58326E5268387839087A18788
:1016F000B28783879487A587B6878787908BA18BCE
:10170000B28B838B948BA58BB68BE754FF4F1182E2
:101710001082EE55FF4F1182108234961192119271
:101720001192119211821082E356F140178AE95406
:10173000FF4F11821082EF01C859DF4F00E010E027
:101740008FE090E00E943201888399838FE090E0DF
:101750000E943201FC01C45AD040998388831082D0
:101760000F5F1F4FCA55DF4F0E31110549F7DF914B
:10177000CF911F910F9108951F920F920FB60F9264
:1017800011242F933F938F939F93AF93BF93809197
:10179000140590911505A0911605B091170530918B
:1017A00018050196A11DB11D232F2D5F2D3720F0A7
:1017B0002D570196A11DB11D209318058093140586
:1017C00090931505A0931605B09317058091100509
:1017D00090911105A0911205B09113050196A11DDC
:1017E000B11D8093100590931105A0931205B0933D
:1017F0001305BF91AF919F918F913F912F910F90C2
:101800000FBE0F901F9018958FB7F8942091140574
:101810003091150540911605509117058FBFB901FC
:10182000CA0108959B01AC017FB7F894809110051F
:1018300090911105A0911205B091130566B5A89B72
:1018400005C06F3F19F00196A11DB11D7FBFBA2FD2
:10185000A92F982F8827860F911DA11DB11D62E029
:10186000880F991FAA1FBB1F6A95D1F7BC012DC015
:10187000FFB7F8948091100590911105A091120581
:10188000B0911305E6B5A89B05C0EF3F19F001968E
:10189000A11DB11DFFBFBA2FA92F982F88278E0F2A
:1018A000911DA11DB11DE2E0880F991FAA1FBB1F4A
:1018B000EA95D1F7861B970B885E9340C8F22150BA
:1018C00030404040504068517C4F21153105410562
:1018D000510571F60895019739F0880F991F880F07
:1018E000991F02970197F1F70895789484B5826063
:1018F00084BD84B5816084BD85B5826085BD85B5B4
:10190000816085BDEEE6F0E0808181608083E1E862
:10191000F0E010828081826080838081816080839A
:10192000E0E8F0E0808181608083E1EBF0E080819D
:1019300084608083E0EBF0E0808181608083E1E976
:10194000F0E0808182608083808181608083E0E933
:10195000F0E0808181608083E1EAF0E08081826054
:101960008083808181608083E0EAF0E08081816013
:101970008083E1E2F1E08081826080838081816008
:101980008083E0E2F1E0808181608083EAE7F0E03B
:101990008081846080838081826080838081816097
:1019A00080838081806880831092C1000895CF93E6
:1019B000DF93482F50E0CA0188589E4FFC013491B4
:1019C0004E5C5E4FFA018491882369F190E0880FA4
:1019D000991FFC01EC51FF4FA591B491FC01E2501D
:1019E000FF4FC591D491662351F42FB7F8948C9191
:1019F000932F909589238C93888189230BC0623023
:101A000061F42FB7F8948C91932F909589238C9340
:101A10008881832B88832FBF06C09FB7F8948C9151
:101A2000832B8C939FBFDF91CF910895893009F468
:101A300049C08A30A0F4843051F1853040F48230BE
:101A400079F1833000F5813009F063C026C087301A
:101A500079F1883098F5863009F05BC025C08D306B
:101A600009F442C08E3028F48B30B1F18C30C0F5CF
:101A70002DC0803109F442C0813109F445C08F3056
:101A800009F047C037C0809180008F7703C08091F4
:101A900080008F7D80938000089584B58F7702C089
:101AA00084B58F7D84BD08958091B0008F7703C089
:101AB0008091B0008F7D8093B00008958091900058
:101AC0008F7707C0809190008F7D03C08091900038
:101AD000877F8093900008958091A0008F7707C042
:101AE0008091A0008F7D03C08091A000877F8093AC
:101AF000A0000895809120018F7703C0809120017C
:101B00008F7D80932001089580912001877F8093AD
:101B100020010895FF920F931F93F62E482F50E057
:101B2000CA0182549E4FFC012491CA0188589E4FDD
:101B3000FC0114914E5C5E4FFA0104910023C1F048
:101B4000222311F0822F72DFE02FF0E0EE0FFF1F53
:101B5000E250FF4FA591B4919FB7F894FF2021F474
:101B60008C911095812302C08C91812B8C939FBF07
:101B70001F910F91FF90089508951F920F920FB635
:101B80000F920BB60F9211242F933F934F938F9385
:101B90009F93EF93FF938091C00082FD1DC0409101
:101BA000C6002091590530915A052F5F3F4F2F7382
:101BB000307080915B0590915C052817390771F0B2
:101BC000E0915905F0915A05E75EFA4F4083309352
:101BD0005A052093590502C08091C600FF91EF91EC
:101BE0009F918F914F913F912F910F900BBE0F902E
:101BF0000FBE0F901F90189508951F920F920FB669
:101C00000F920BB60F9211242F933F934F938F9304
:101C10009F93EF93FF938091C80082FD1DC0409178
:101C2000CE002091E1053091E2052F5F3F4F2F73E9
:101C300030708091E3059091E4052817390771F021
:101C4000E091E105F091E205EF55FA4F40833093C2
:101C5000E2052093E10502C08091CE00FF91EF9153
:101C60009F918F914F913F912F910F900BBE0F90AD
:101C70000FBE0F901F90189508951F920F920FB6E8
:101C80000F920BB60F9211242F933F934F938F9384
:101C90009F93EF93FF938091D00082FD1DC04091F0
:101CA000D6002091690630916A062F5F3F4F2F734F
:101CB000307080916B0690916C062817390771F08F
:101CC000E0916906F0916A06E75DF94F4083309331
:101CD0006A062093690602C08091D600FF91EF91B9
:101CE0009F918F914F913F912F910F900BBE0F902D
:101CF0000FBE0F901F90189508951F920F920FB668
:101D00000F920BB60F9211242F933F934F938F9303
:101D10009F93EF93FF938091300182FD1DC040910E
:101D200036012091F1063091F2062F5F3F4F2F735D
:101D300030708091F3069091F4062817390771F0FE
:101D4000E091F106F091F206EF54F94F40833093A1
:101D5000F2062093F10602C080913601FF91EF91C7
:101D60009F918F914F913F912F910F900BBE0F90AC
:101D70000FBE0F901F901895E0914507F091460710
:101D8000E05CFF4F8191919120813181821B930B07
:101D90008F739070892B09F0EFDEE0916707F09167
:101DA0006807E05CFF4F8191919120813181821B16
:101DB000930B8F739070892B09F01EDFE0918907D8
:101DC000F0918A07E05CFF4F8191919120813181F0
:101DD000821B930B8F739070892B09F04DDFE0917C
:101DE000AB07F091AC07E05CFF4F819191912081AE
:101DF0003181821B930B8F739070892B09F07CCFFC
:101E000008951F920F920FB60F920BB60F921124E6
:101E10002F933F938F939F93EF93FF9320919D0573
:101E200030919E0580919F059091A0052817390754
:101E300031F48091C1008F7D8093C10014C0E09186
:101E40009F05F091A005E35AFA4F208180919F05EC
:101E50009091A00501968F7390709093A005809348
:101E60009F052093C600FF91EF919F918F913F9125
:101E70002F910F900BBE0F900FBE0F901F901895D3
:101E80001F920F920FB60F920BB60F9211242F9341
:101E90003F938F939F93EF93FF932091250630916B
:101EA000260680912706909128062817390731F4D5
:101EB0008091C9008F7D8093C90014C0E0912706EE
:101EC000F0912806EB51FA4F2081809127069091DE
:101ED000280601968F7390709093280680932706AA
:101EE0002093CE00FF91EF919F918F913F912F9181
:101EF0000F900BBE0F900FBE0F901F9018951F9262
:101F00000F920FB60F920BB60F9211242F933F939F
:101F10008F939F93EF93FF932091AD063091AE0680
:101F20008091AF069091B0062817390731F480915F
:101F3000D1008F7D8093D10014C0E091AF06F09165
:101F4000B006E359F94F20818091AF069091B00619
:101F500001968F7390709093B0068093AF06209394
:101F6000D600FF91EF919F918F913F912F910F900C
:101F70000BBE0F900FBE0F901F9018951F920F92DF
:101F80000FB60F920BB60F9211242F933F938F939E
:101F90009F93EF93FF9320913507309136078091FF
:101FA0003707909138072817390731F480913101AC
:101FB0008F7D8093310114C0E0913707F09138078D
:101FC000EB50F94F208180913707909138070196A7
:101FD0008F73907090933807809337072093360162
:101FE000FF91EF919F918F913F912F910F900BBE99
:101FF0000F900FBE0F901F901895AF92BF92DF9277
:10200000EF92FF920F931F93CF93DF93EC017A012E
:102010008B01DD24403081EE580780E0680780E0C6
:10202000780711F0DD24D39491E0A92EB12CEC892E
:10203000FD89DD2069F0C50108A002C0880F991F45
:102040000A94E2F7808360E079E08DE390E005C0D8
:10205000108260E874E88EE190E0A80197010E9488
:102060009218215030404040504056954795379542
:10207000279580E12030380720F0DD2011F0DD24A5
:10208000D6CFE889F9893083EA89FB89208319A2B0
:10209000EE89FF89408121E030E0C9010C8C02C04B
:1020A000880F991F0A94E2F7482B4083EE89FF8935
:1020B0004081C9010D8C02C0880F991F0A94E2F774
:1020C000482B4083EE89FF894081C9010E8C02C0F4
:1020D000880F991F0A94E2F7482B4083EE89FF8905
:1020E00080810F8C02C0220F331F0A94E2F72095E3
:1020F00028232083DF91CF911F910F91FF90EF90C4
:10210000DF90BF90AF900895DC011C96ED91FC919B
:102110001D97E05CFF4F2191319180819181281BB7
:10212000390B2F733070C9010895DC011C96ED91B5
:10213000FC911D97E05CFF4F20813181E054F0401D
:10214000DF01AE5BBF4F8D919C9111972817390726
:1021500019F42FEF3FEF07C08D919C91E80FF91F05
:102160008081282F30E0C9010895DC011C96ED9193
:10217000FC911D97E05CFF4F20813181E054F040DD
:10218000DF01AE5BBF4F8D919C91119728173907E6
:1021900019F42FEF3FEF10C08D919C911197E80F2C
:1021A000F91F20818D919C91119701968F739070EA
:1021B00011969C938E9330E0C9010895DC019196AD
:1021C0008C919197882339F05496ED91FC91559715
:1021D000808186FFF9CF91961C920895CF93DF936B
:1021E000EC01EE85FF85E05CFF4F20813181E054FA
:1021F000F0402F5F3F4F2F733070DF01AE5BBF4F5A
:102200008D919C91119728173907D1F3E05CFF4F0E
:1022100080819181E054F040E80FF91F6083EE85E2
:10222000FF85E05CFF4F31832083EE89FF892081A9
:1022300081E090E00F8C02C0880F991F0A94E2F7AA
:10224000282B208381E089A3EC89FD89808180642B
:10225000808381E090E0DF91CF9108951F931092E9
:102260003C0710923B0728EE33E040E050E020931B
:102270003D0730933E0740933F075093400768E087
:1022800073E070933A076093390789E195E0909382
:102290004607809345078DE595E090934807809326
:1022A000470785EC90E090934A078093490784ECB8
:1022B00090E090934C0780934B0780EC90E09093D4
:1022C0004E0780934D0781EC90E0909350078093E8
:1022D0004F0782EC90E0909352078093510786EC71
:1022E00090E0909354078093530714E010935507A0
:1022F000B3E0B0935607A7E0A0935707F5E0F0933B
:102300005807E1E0E093590710925E0710925D07CD
:1023100020935F07309360074093610750936207F3
:1023200070935C0760935B0781EA95E09093680780
:102330008093670785EE95E090936A07809369071D
:102340008DEC90E090936C0780936B078CEC90E0A1
:1023500090936E0780936D0788EC90E090937007E0
:1023600080936F0789EC90E09093720780937107D8
:102370008AEC90E090937407809373078EEC90E062
:10238000909376078093750710937707B09378073B
:10239000A0937907F0937A07E0937B071092800768
:1023A00010927F0720938107309382074093830721
:1023B0005093840770937E0760937D0789E296E0CF
:1023C00090938A07809389078DE696E090938C0717
:1023D00080938B0785ED90E090938E0780938D0717
:1023E00084ED90E09093900780938F0780ED90E0CC
:1023F000909392078093910781ED90E090939407DA
:102400008093930782ED90E09093960780939507D1
:1024100086ED90E090939807809397071093990723
:10242000B0939A07A0939B07F0939C07E0939D07B6
:102430001092A2071092A1072093A3073093A4073C
:102440004093A5075093A6077093A00760939F073A
:1024500081EB96E09093AC078093AB0785EF96E015
:102460009093AE078093AD0785E391E09093B0071A
:102470008093AF0784E391E09093B2078093B10714
:1024800080E391E09093B4078093B30781E391E0F8
:102490009093B6078093B50782E391E09093B807D5
:1024A0008093B70786E391E09093BA078093B907CA
:1024B0001093BB07B093BC07A093BD07F093BE0772
:1024C000E093BF071F910895CF93DF930EDA0E9428
:1024D0002505CCEBDEE00E94CB042097E1F34CDC39
:1024E000FACFCF92DF92EF92FF920F931F93CF9389
:1024F000DF937C016B018A01C0E0D0E00FC0D60100
:102500006D916D01D701ED91FC910190F081E02D6D
:10251000C7011995C80FD91F0150104001151105A9
:1025200071F7CE01DF91CF911F910F91FF90EF9046
:10253000DF90CF900895EF92FF920F931F938C013D
:10254000DC01ED91FC910190F081E02D6DE0199599
:102550007C01D801ED91FC910190F081E02DC80142
:102560006AE019959C012E0D3F1DC9011F910F9125
:10257000FF90EF900895CF93DF93EC016115710503
:1025800019F420E030E00FC0DB010D900020E9F7E6
:102590001197A61BB70BE881F9810280F381E02D2A
:1025A000AD0119959C01C901DF91CF9108954F921A
:1025B0005F927F928F929F92AF92BF92CF92DF9263
:1025C000EF92FF920F931F93DF93CF93CDB7DEB7B8
:1025D000A1970FB6F894DEBF0FBECDBF2C01742EAD
:1025E000CB01223008F42AE019A231E2C32ED12C0B
:1025F000CC0EDD1E822E9924AA24BB24672D752FB4
:10260000A50194018FD579018A01C801B701A501FF
:10261000940156D5472D461B0894C108D1084A306D
:1026200014F4405D01C0495CF6014083E114F104FB
:102630000105110521F07E2C5F2DC801DFCFC201FD
:10264000B60199DFA1960FB6F894DEBF0FBECDBFDD
:10265000CF91DF911F910F91FF90EF90DF90CF907E
:10266000BF90AF909F908F907F905F904F90089514
:10267000DC012115310541F4ED91FC910190F081CF
:10268000E02D642F1995089592CFCF92DF92EF92AB
:10269000FF920F931F93CF93DF93EC016A017B01AD
:1026A0002115310541F4E881F9810190F081E02D97
:1026B000642F19951DC02A303105C9F477FF16C063
:1026C000E881F9810190F081E02D6DE219958C018E
:1026D00044275527BA014C195D096E097F09CE01BF
:1026E0002AE065DF9801280F391F03C02AE05FDF69
:1026F0009C01C901DF91CF911F910F91FF90EF9045
:10270000DF90CF900895EF92FF920F931F937B017C
:102710009A010027F7FC0095102FB801A701B5DF3B
:102720001F910F91FF90EF90089525CF08957F920C
:102730008F929F92AF92BF92CF92DF92EF92FF92D1
:102740000F931F93CF93DF934C017A018B01722E6D
:10275000CB01BA01A8019701AFD4882321F0C401AD
:1027600060EE72E01FC0C0E0D0E057016801E8945D
:10277000D7F8C601B5012FEF3FEF4FE75FE79CD4D5
:10278000882349F4C601B5012FEF3FEF4FE75FE71C
:1027900088D2181614F0C1E0D0E0219731F0C401BE
:1027A00064EE72E0E8DEEC0184C0C801B7012FEFEF
:1027B0003FEF4FE75FE419D418164CF0C801B7019A
:1027C0002FEF3FEF4FE75FEC6CD2882324F4C40176
:1027D00068EE72E0E7CFC801B70120E030E040E0EA
:1027E00050E05FD287FD03C0C0E0D0E00EC0D4014E
:1027F000ED91FC910190F081E02DC4016DE21995FD
:10280000EC0117FB109517F9109520E030E040E03F
:102810005FE3DD240AC0CA01B90120E030E040E2F4
:1028200051E443D29B01AC01D394D714A0F3C80167
:10283000B701D3D15B016C01A5D27B018C01C4012E
:10284000B801A7012AE030E013DFC80FD91F7720B5
:1028500031F0C4016CEE72E08EDEC80FD91FC801E2
:10286000B701BCD29B01AC01C601B501B5D11FC0F7
:1028700020E030E040E251E4BCD37B018C017DD20A
:102880005B016C01CC24B7FCC094DC2CC401B60104
:10289000A5012AE030E0F9DEC80FD91FC601B50155
:1028A0009FD29B01AC01C801B70196D17A947720E1
:1028B000F9F6CE01DF91CF911F910F91FF90EF902C
:1028C000DF90CF90BF90AF909F908F907F900895B2
:1028D0002ECF0895EF92FF920F931F937C014BDE52
:1028E0008C01C70128DE080F191FC8011F910F9125
:1028F000FF90EF900895CF93DF93EC010E94040CBA
:10290000688779878A879B87E881F9810084F185C8
:10291000E02DCE0119959C0197FF15C00E94040C73
:10292000288539854A855B85621B730B840B950B63
:102930002C813D814E815F81621773078407950763
:1029400018F32FEF3FEFC901DF91CF910895CF9397
:10295000DF93EC01CE01CFDF9C0197FD0EC08D32DD
:10296000910559F0C0970A9740F0E881F9810680F7
:10297000F781E02DCE011995EDCFC901DF91CF91FF
:1029800008959F92AF92BF92CF92DF92EF92FF9203
:102990000F931F93CF93DF936C01B62ED8DFEC011A
:1029A00097FF04C0EE24FF2487014AC09924EE2437
:1029B000FF248701AB2CBB24A7FCB094CA15DB0510
:1029C00021F1CD32D10519F4992493941EC0CE0182
:1029D000C0970A97D0F4C801B7012AE030E040E080
:1029E00050E06ED37B018C01CE01AA2797FDA09504
:1029F000BA2FE80EF91E0A1F1B1F80ED9FEFAFEFE5
:102A0000BFEFE80EF91E0A1F1B1FD601ED91FC91C6
:102A10000680F781E02DC6011995C6016CDFEC0137
:102A2000C0970A9758F2CA15DB0541F2992041F088
:102A300010950095F094E094E11CF11C011D111D0E
:102A4000B701C801DF91CF911F910F91FF90EF90D7
:102A5000DF90CF90BF90AF909F90089561E091CFAD
:102A6000DC01FB0114968D919C911597892B31F413
:102A700061157105A9F090E0808108C00D90BC91AE
:102A8000A02D6115710529F490E08C91882349F4FB
:102A900007C0CD010E940D039C0190E0232B09F497
:102AA00091E0892F08950F931F93CF93DF93EC014B
:102AB0008B016F5F7F4F888199810E94340200975C
:102AC00011F480E005C0998388831B830A8381E029
:102AD000DF91CF911F910F910895CF93DF93EC0178
:102AE00088819981892B29F08A819B818617970794
:102AF00058F4CE01D8DF882341F08C819D81892B49
:102B000019F4E881F981108281E0DF91CF91089575
:102B1000CF93DF93EC0188819981009711F00E9497
:102B2000DC01198218821D821C821B821A82DF91AD
:102B3000CF910895EF92FF920F931F93CF93DF935E
:102B4000EC017B018A01BA01C8DF882319F4CE01A8
:102B5000DFDF07C01D830C8388819981B7010E9444
:102B60001603CE01DF91CF911F910F91FF90EF904F
:102B70000895CF93DF93EC01198218821B821A8289
:102B80001D821C821E826115710549F0DB010D90CA
:102B90000020E9F71197A61BB70BAD01CBDFDF9142
:102BA000CF910895CF93DF93EC01FB018617970730
:102BB00051F0608171816115710521F04481558169
:102BC000B9DF01C0A5DFCE01DF91CF910895FC01EF
:102BD000808191810C94DC015058BB27AA270ED02C
:102BE000B3C1A4D130F0A9D120F031F49F3F11F44A
:102BF0001EF499C10EF4E095E7FB64C1E92FB5D14D
:102C000080F3BA17620773078407950718F071F409
:102C10009EF5E4C10EF4E0950B2EBA2FA02D0B010A
:102C2000B90190010C01CA01A0011124FF27591B11
:102C300099F0593F50F4503E68F11A16F040A22F17
:102C4000232F342F4427585FF3CF46953795279588
:102C5000A795F0405395C9F77EF41F16BA0B620B87
:102C6000730B840BBAF09150A1F0FF0FBB1F661FCE
:102C7000771F881FC2F70EC0BA0F621F731F841F11
:102C800048F4879577956795B795F7959E3F08F037
:102C9000B3CF9395880F08F09927EE0F97958795F6
:102CA0000895ECD008F481E008950CD04DC145D1D1
:102CB00040F03CD130F021F45F3F19F003C15111D5
:102CC0008EC131C152D198F39923C9F35523B1F381
:102CD000951B550BBB27AA2762177307840738F08B
:102CE0009F5F5F4F220F331F441FAA1FA9F333D0EA
:102CF0000E2E3AF0E0E830D091505040E695001C9E
:102D0000CAF729D0FE2F27D0660F771F881FBB1F59
:102D1000261737074807AB07B0E809F0BB0B802D33
:102D2000BF01FF2793585F4F2AF09E3F510568F07F
:102D3000C9C055C15F3FECF3983EDCF386957795AB
:102D40006795B795F7959F5FC9F7880F911D969581
:102D5000879597F90895E1E0660F771F881FBB1FDD
:102D6000621773078407BA0720F0621B730B840B8A
:102D7000BA0BEE1F88F7E095089504D06894B1115E
:102D80002EC10895FAD088F09F5790F0B92F992757
:102D9000B751A0F0D1F0660F771F881F991F1AF066
:102DA000BA95C9F712C0B13081F018D1B1E00895D9
:102DB00015C1672F782F8827B85F39F0B93FCCF35A
:102DC000869577956795B395D9F73EF4909580955C
:102DD000709561957F4F8F4F9F4F0895E89409C07C
:102DE00097FB3EF490958095709561957F4F8F4F3E
:102DF0009F4F9923A9F0F92F96E9BB279395F69554
:102E0000879577956795B795F111F8CFFAF4BB0FD1
:102E100011F460FF1BC06F5F7F4F8F4F9F4F16C035
:102E2000882311F096E911C0772321F09EE8872FBF
:102E3000762F05C0662371F096E8862F70E060E07B
:102E40002AF09A95660F771F881FDAF7880F9695F4
:102E5000879597F90895ABD080F09F3740F4911192
:102E60000EF0BDC060E070E080E89FEB089526F4AE
:102E70001B16611D711D811D2BC045C0990F0008D7
:102E8000550FAA0BE0E8FEEF16161706E807F9073C
:102E9000C0F012161306E407F50798F0621B730BD7
:102EA000840B950B39F40A2661F0232B242B252B58
:102EB00021F408950A2609F4A140A6958FEF811DFB
:102EC000811D089597F99F6780E870E060E008959C
:102ED000882371F4772321F09850872B762F07C031
:102EE000662311F499270DC09051862B70E060E0A5
:102EF0002AF09A95660F771F881FDAF7880F969544
:102F0000879597F908959F3F49F0915028F4869549
:102F100077956795B7959F5F80389F4F880F9695F7
:102F2000879597F908959FEF80EC089500240A94FF
:102F30001616170618060906089500240A94121694
:102F40001306140605060895092E0394000C11F4C7
:102F5000882352F0BB0F40F4BF2B11F460FF04C074
:102F60006F5F7F4F8F4F9F4F089557FD9058440FCD
:102F7000551F59F05F3F71F04795880F97FB991FD8
:102F800061F09F3F79F08795089512161306140695
:102F9000551FF2CF4695F1DF08C016161706180622
:102FA000991FF1CF86957105610508940895E5DFB5
:102FB000A0F0BEE7B91788F4BB279F3860F4161657
:102FC000B11D672F782F8827985FF7CF8695779563
:102FD0006795B11D93959639C8F30895E894BB277A
:102FE00066277727CB0197F9089548DF08F48FEF1C
:102FF00008950BD0A9CF9ADF28F09FDF18F0952312
:1030000009F060CF90CF1124EACFAFDFA0F3959FF6
:10301000D1F3950F50E0551F629FF001729FBB27BF
:10302000F00DB11D639FAA27F00DB11DAA1F649F6B
:103030006627B00DA11D661F829F2227B00DA11D1E
:10304000621F739FB00DA11D621F839FA00D611DA4
:10305000221F749F3327A00D611D231F849F600DC5
:10306000211D822F762F6A2F11249F5750408AF0FE
:10307000E1F088234AF0EE0FFF1FBB1F661F771F8A
:10308000881F91505040A9F79E3F510570F01ACF0C
:10309000A6CF5F3FECF3983EDCF386957795679576
:1030A000B795F795E7959F5FC1F7FE2B880F911DA8
:1030B0009695879597F90895E1DE880B990B089509
:1030C000629FD001739FF001829FE00DF11D649F0C
:1030D000E00DF11D929FF00D839FF00D749FF00D98
:1030E000659FF00D9927729FB00DE11DF91F639F39
:1030F000B00DE11DF91FBD01CF011124089597FB0B
:10310000092E07260AD077FD04D02ED006D0002045
:103110001AF4709561957F4F0895F6F79095819513
:103120009F4F0895A1E21A2EAA1BBB1BFD010DC0E3
:10313000AA1FBB1FEE1FFF1FA217B307E407F50767
:1031400020F0A21BB30BE40BF50B661F771F881F43
:10315000991F1A9469F760957095809590959B01D9
:10316000AC01BD01CF010895AA1BBB1B51E107C0F3
:10317000AA1FBB1FA617B70710F0A61BB70B881F07
:10318000991F5A95A9F780959095BC01CD01089596
:10319000EE0FFF1F0590F491E02D19942F923F92AE
:1031A0004F925F926F927F928F929F92AF92BF9257
:1031B000CF92DF92EF92FF920F931F93CF93DF9303
:1031C000CDB7DEB7CA1BDB0B0FB6F894DEBF0FBE60
:1031D000CDBF19942A88398848885F846E847D849D
:1031E0008C849B84AA84B984C884DF80EE80FD80AF
:1031F0000C811B81AA81B981CE0FD11D0FB6F89425
:0E320000DEBF0FBECDBFED010895F894FFCFE5
:10320E00004750524D43002A00200025002F370062
:10321E003C003E2020000A446972656374696F6E3B
:10322E002046696E64657220547261636B6572200C
:10323E0076312E3020646520463147424420284A9C
:10324E0065616E2D4C6F756973204E617564696E84
:10325E0029202D20414452415345432037370076D3
:10326E0020312E3000202D20002032362F332F32E9
:10327E00303135002A2A2A204144524153454337E2
:10328E0037202A2A0020444654343036202D20463A
:10329E003147424420000A417474656E74652061A2
:1032AE0063717569736974696F6E20736174656C8F
:1032BE006C69746573204750532E2E2E0041637136
:1032CE007569736974696F6E2047505300204F4BB8
:1032DE000A52454144590A00244750524D432C008E
:1032EE006E616E00696E66006F7666002E002000BD
:1032FE00C5070000000000005206711200004000D9
:10330E001400540000000000EE1071128410B5106D
:04331E009510DE1018
:00000001FF
